:020000040800F2
:1000000000800120E9C501084DC101085BC101085C
:1000100061C1010867C101086DC10108000000004D
:1000200000000000000000000000000073C1010893
:1000300081C10108000000008FC101089DC10108B5
:1000400039C6010839C6010839C6010839C6010890
:1000500039C6010839C60108CDC10108DBC1010854
:10006000E9C10108F7C1010805C2010839C6010844
:10007000B5C1010839C6010839C6010839C60108E9
:1000800039C6010839C6010839C6010839C6010850
:1000900039C6010839C6010839C6010813C201086A
:1000A00039C6010839C6010839C6010839C6010830
:1000B00039C6010839C6010839C6010839C6010820
:1000C00039C6010839C6010839C6010839C6010810
:1000D00039C6010839C6010839C60108A9C1010895
:1000E0003DC20108C1C1010839C6010839C601086D
:1000F00039C6010839C6010839C6010839C60108E0
:1001000039C6010839C6010839C6010839C60108CF
:1001100039C6010839C6010839C6010839C60108BF
:1001200039C6010839C6010839C6010839C60108AF
:1001300039C6010839C6010839C6010839C601089F
:1001400039C6010839C6010839C6010839C601088F
:1001500039C6010839C6010839C6010839C601087F
:1001600039C6010839C6010839C6010839C601086F
:1001700039C6010839C6010839C601080000000067
:0801800039C6010839C6010867
:1001900010B5054C237833B9044B13B10448AFF3C1
:1001A00000800123237010BD6003002000000000C8
:1001B00008ED010808B5034B1BB103490348AFF331
:1001C000008008BD000000006403002008ED010865
:1001D00081F0004102E000BF83F0004330B54FEAF8
:1001E00041044FEA430594EA050F08BF90EA020F65
:1001F0001FBF54EA000C55EA020C7FEA645C7FEAF8
:10020000655C00F0E2804FEA5454D4EB5555B8BF1A
:100210006D420CDD2C4480EA020281EA030382EA8B
:10022000000083EA010180EA020281EA0303362D1D
:1002300088BF30BD11F0004F4FEA01314FF4801CF0
:100240004CEA113102D0404261EB410113F0004F02
:100250004FEA03334CEA133302D0524263EB4303B9
:1002600094EA050F00F0A780A4F10104D5F1200E57
:100270000DDB02FA0EFC22FA05F2801841F10001B2
:1002800003FA0EF2801843FA05F359410EE0A5F186
:1002900020050EF1200E012A03FA0EFC28BF4CF0B7
:1002A000020C43FA05F3C01851EBE37101F000456D
:1002B00007D54FF0000EDCF1000C7EEB00006EEB7A
:1002C0000101B1F5801F1BD3B1F5001F0CD3490804
:1002D0005FEA30004FEA3C0C04F101044FEA44525B
:1002E00012F5800F80F09A80BCF1004F08BF5FEAE2
:1002F000500C50F1000041EB045141EA050130BDC2
:100300005FEA4C0C404141EB010111F4801FA4F164
:100310000104E9D191F0000F04BF01460020B1FAB9
:1003200081F308BF2033A3F10B03B3F120020CDAF1
:100330000C3208DD02F1140CC2F10C0201FA0CF0CF
:1003400021FA02F10CE002F11402D8BFC2F1200C34
:1003500001FA02F120FA0CFCDCBF41EA0C019040EA
:10036000E41AA2BF01EB0451294330BD6FEA040433
:100370001F3C1CDA0C340EDC04F11404C4F120021E
:1003800020FA04F001FA02F340EA030021FA04F330
:1003900045EA030130BDC4F10C04C4F1200220FA87
:1003A00002F001FA04F340EA0300294630BD21FAC5
:1003B00004F0294630BD94F0000F83F4801306BF8B
:1003C00081F480110134013D4EE77FEA645C18BF7F
:1003D0007FEA655C29D094EA050F08BF90EA020F16
:1003E00005D054EA000C04BF1946104630BD91EA0E
:1003F000030F1EBF0021002030BD5FEA545C05D111
:100400004000494128BF41F0004130BD14F580044F
:100410003CBF01F5801130BD01F0004545F0FE41C3
:1004200041F470014FF0000030BD7FEA645C1ABFF8
:10043000194610467FEA655C1CBF0B46024650EA2F
:10044000013406BF52EA033591EA030F41F400215B
:1004500030BD00BF90F0000F04BF0021704730B5E1
:100460004FF4806404F132044FF000054FF00001B6
:1004700050E700BF90F0000F04BF0021704730B577
:100480004FF4806404F1320410F0004548BF40424C
:100490004FF000013EE700BF42004FEAE2014FEAA1
:1004A00031014FEA02701FBF12F07F4393F07F4F7C
:1004B00081F06051704732F07F4208BF704793F07F
:1004C0007F4F04BF41F40021704730B54FF4607492
:1004D00001F0004521F000411CE700BF50EA010295
:1004E00008BF704730B54FF000050AE050EA01023E
:1004F00008BF704730B511F0004502D5404261EBAE
:1005000041014FF4806404F132045FEA915C3FF4EE
:10051000D8AE4FF003025FEADC0C18BF03325FEA8B
:10052000DC0C18BF033202EBDC02C2F1200300FA3C
:1005300003FC20FA02F001FA03FE40EA0E0021FA61
:1005400002F11444BDE600BF70B54FF0FF0C4CF44F
:10055000E06C1CEA11541DBF1CEA135594EA0C0F01
:1005600095EA0C0F00F0DEF82C4481EA030621EA3C
:100570004C5123EA4C5350EA013518BF52EA033577
:1005800041F4801143F4801338D0A0FB02CE4FF029
:100590000005E1FB02E506F00042E0FB03E54FF059
:1005A0000006E1FB03569CF0000F18BF4EF0010E51
:1005B000A4F1FF04B6F5007F64F5407404D25FEA4D
:1005C0004E0E6D4146EB060642EAC62141EA555100
:1005D0004FEAC52040EA5E504FEACE2EB4F1FD0C42
:1005E00088BFBCF5E06F1ED8BEF1004F08BF5FEAC0
:1005F000500E50F1000041EB045170BD06F0004672
:1006000046EA010140EA020081EA0301B4EB5C041E
:10061000C2BFD4EB0C0541EA045170BD41F4801116
:100620004FF0000E013C00F3AB8014F1360FDEBF3B
:10063000002001F0004170BDC4F10004203C35DA17
:100640000C341BDC04F11404C4F1200500FA05F39A
:1006500020FA04F001FA05F240EA020001F000423B
:1006600021F0004110EBD37021FA04F642EB0601B1
:100670005EEA430E08BF20EAD37070BDC4F10C04DB
:10068000C4F1200500FA04F320FA05F001FA04F29F
:1006900040EA020001F0004110EBD37041F100018B
:1006A0005EEA430E08BF20EAD37070BDC4F1200596
:1006B00000FA05F24EEA020E20FA04F301FA05F2FE
:1006C00043EA020321FA04F001F0004121FA04F2A6
:1006D00020EA020000EBD3705EEA430E08BF20EA76
:1006E000D37070BD94F0000F0FD101F000464000B0
:1006F00041EB010111F4801F08BF013CF7D041EA32
:10070000060195F0000F18BF704703F00046520035
:1007100043EB030313F4801F08BF013DF7D043EA06
:100720000603704794EA0C0F0CEA135518BF95EABC
:100730000C0F0CD050EA410618BF52EA4306D1D143
:1007400081EA030101F000414FF0000070BD50EA62
:10075000410606BF1046194652EA430619D094EAEC
:100760000C0F02D150EA013613D195EA0C0F05D1D6
:1007700052EA03361CBF104619460AD181EA03012A
:1007800001F0004141F0FE4141F470014FF00000E2
:1007900070BD41F0FE4141F4780170BD70B54FF07D
:1007A000FF0C4CF4E06C1CEA11541DBF1CEA1355FD
:1007B00094EA0C0F95EA0C0F00F0A7F8A4EB0504DF
:1007C00081EA030E52EA03354FEA013100F08880D6
:1007D0004FEA03334FF0805545EA131343EA12639F
:1007E0004FEA022245EA111545EA10654FEA002654
:1007F0000EF000419D4208BF964244F1FD0404F50D
:10080000407402D25B084FEA3202B61A65EB030568
:100810005B084FEA32024FF480104FF4002CB6EB25
:10082000020E75EB030E22BFB61A754640EA0C00A5
:100830005B084FEA3202B6EB020E75EB030E22BFE5
:10084000B61A754640EA5C005B084FEA3202B6EB26
:10085000020E75EB030E22BFB61A754640EA9C00E5
:100860005B084FEA3202B6EB020E75EB030E22BFB5
:10087000B61A754640EADC0055EA060E18D04FEA73
:10088000051545EA16754FEA06164FEAC30343EA13
:1008900052734FEAC2025FEA1C1CC0D111F4801FE0
:1008A0000BD141EA00014FF000004FF0004CB6E7D9
:1008B00011F4801F04BF01430020B4F1FD0C88BF78
:1008C000BCF5E06F3FF6AFAEB5EB030C04BFB6EB83
:1008D000020C5FEA500C50F1000041EB045170BD76
:1008E0000EF0004E4EEA113114EB5C04C2BFD4EBA3
:1008F0000C0541EA045170BD41F480114FF0000E27
:10090000013C90E645EA060E8DE60CEA135594EAA2
:100910000C0F08BF95EA0C0F3FF43BAF94EA0C0FA5
:100920000AD150EA01347FF434AF95EA0C0F7FF41A
:1009300025AF104619462CE795EA0C0F06D152EA6E
:1009400003353FF4FDAE1046194622E750EA410652
:1009500018BF52EA43067FF4C5AE50EA41047FF463
:100960000DAF52EA43057FF4EBAE12E74FF0FF3CC8
:1009700006E000BF4FF0010C02E000BF4FF0010C99
:100980004DF804CD4FEA410C7FEA6C5C4FEA430C12
:1009900018BF7FEA6C5C1BD001B050EA410C0CBF61
:1009A00052EA430C91EA030F02BF90EA020F0020C3
:1009B000704710F1000F91EA030F58BF994208BF2A
:1009C00090422CBFD8176FEAE37040F001007047E7
:1009D0004FEA410C7FEA6C5C02D150EA013C07D13E
:1009E0004FEA430C7FEA6C5CD6D152EA033CD3D089
:1009F0005DF8040B704700BF8446104662468C4683
:100A00001946634600E000BF01B5FFF7B7FF0028B5
:100A100048BF10F1000F01BD4DF808EDFFF7F4FFDE
:100A20000CBF012000205DF808FB00BF4DF808ED69
:100A3000FFF7EAFF34BF012000205DF808FB00BF8C
:100A40004DF808EDFFF7E0FF94BF012000205DF8AE
:100A500008FB00BF4DF808EDFFF7CEFF94BF012063
:100A600000205DF808FB00BF4DF808EDFFF7C4FF5C
:100A700034BF012000205DF808FB00BF4FEA410CA5
:100A80007FEA6C5C02D150EA013C0AD14FEA430C88
:100A90007FEA6C5C02D152EA033C02D14FF00000C5
:100AA00070474FF0010070474FEA410212F5001203
:100AB00015D211D56FF47873B3EB625212D94FEAA5
:100AC000C12343F0004343EA505311F0004F23FA8F
:100AD00002F018BF404270474FF00000704750EAE4
:100AE000013005D111F0004008BF6FF000407047A1
:100AF0004FF00000704700BF4A0011D212F50012FB
:100B000011D20DD56FF47873B3EB62520ED44FEA65
:100B1000C12343F0004343EA505323FA02F07047E5
:100B20004FF00000704750EA013002D14FF0FF3023
:100B300070474FF0000070474FEA4102B2F1E043C6
:100B400024BFB3F5001CDCF1FE5C0DD901F0004CB4
:100B50004FEAC0024CEA5070B2F1004F40EB830004
:100B600008BF20F00100704711F0804F21D113F130
:100B70003872BCBF01F00040704741F480114FEA69
:100B80005252C2F11802C2F1200C10FA0CF320FAF2
:100B900002F018BF40F001004FEAC1234FEAD3230F
:100BA00003FA0CFC40EA0C0023FA02F34FEA430379
:100BB000CCE77FEA625307D150EA01331EBF4FF002
:100BC000FE4040F44000704701F0004040F0FE401D
:100BD00040F40000704700BF53B94AB9002908BF6C
:100BE00000281CBF4FF0FF314FF0FF3000F072B90A
:100BF000ADF1080C6DE904CE00F006F8DDF804E074
:100C0000DDE9022304B070472DE9F047089E044651
:100C10008846002B4BD18A42154667D9B2FA82F238
:100C20004AB1C2F1200701FA02F320FA07F7954012
:100C300047EA030894404FEA154E230CB8FBFEF731
:100C40001FFA85FC0EFB178843EA084307FB0CF1EB
:100C5000994209D9EB1807F1FF3080F01B819942C6
:100C600040F21881023F2B445B1AA4B2B3FBFEF0A2
:100C70000EFB103344EA034400FB0CFCA44509D9E5
:100C80002C1900F1FF3380F00781A44540F2048164
:100C900002382C4440EA0740A4EB0C0400271EB1A4
:100CA000D4400023C6E900433946BDE8F0878B42B3
:100CB00009D9002E00F0EB800027C6E90001384674
:100CC0003946BDE8F087B3FA83F7002F47D18B424E
:100CD00002D3824200F2FA80841A61EB03030120FE
:100CE0009846002EE0D0C6E90048DDE702B9FFDEF5
:100CF000B2FA82F2002A40F08F80491B4FEA154E6B
:100D00001FFA85F80127B1FBFEFC230C0EFB1C111A
:100D100043EA014308FB0CF1994207D9EB180CF1A7
:100D2000FF3002D2994200F2CD808446591AA3B214
:100D3000B1FBFEF00EFB101443EA044408FB00F87C
:100D4000A04507D92C1900F1FF3302D2A04500F2CB
:100D5000B6801846A4EB080440EA0C409FE7C7F1B0
:100D6000200CBB4022FA0CFE4EEA030E01FA07F4F7
:100D700020FA0CF521FA0CF34FEA1E482543B3FB89
:100D8000F8F92C0C08FB19331FFA8EFA44EA0343D6
:100D900009FB0AF49C4202FA07F200FA07F10BD9A8
:100DA0001EEB030309F1FF3080F087809C4240F284
:100DB0008480A9F1020973441B1BADB2B3FBF8F0A8
:100DC00008FB103345EA034400FB0AFAA24508D9A0
:100DD0001EEB040400F1FF336BD2A24569D902383F
:100DE000744440EA0940A0FB0289A4EB0A044C4584
:100DF000C2464B4654D351D0002E69D0B1EB0A0500
:100E000064EB030404FA0CFCFD40FC404CEA0505CD
:100E1000C6E90054002747E7C2F1200320FA03F790
:100E2000954001FA02F021FA03F34FEA154E3843D8
:100E3000010CB3FBFEF71FFA85F80EFB173341EAEE
:100E4000034107FB08F38B4204FA02F407D969183F
:100E500007F1FF3C2FD28B422DD9023F2944CB1AF8
:100E600081B2B3FBFEF00EFB103341EA034100FBFD
:100E700008F38B4207D9691800F1FF3C17D28B4267
:100E800015D902382944C91A40EA07473BE73746D3
:100E9000304609E70746E7E61846FBE64145ABD290
:100EA000B8EB020A69EB0E0201381346A4E760466C
:100EB000E9E7184695E76746D1E781467CE70238BF
:100EC0002C4447E7ACF1020C2B442FE7384608E7E7
:100ED0003746E9E6704700BF034613F8012B002AA6
:100EE000FBD1181A01387047000000000000000014
:100EF00001F0FF01102A2BDB10F0070F08D010F8CB
:100F0000013B013A8B422DD010F0070F42B3F6D1CE
:100F1000F0B441EA012141EA014122F007047FF0E7
:100F200000070023F0E80256083C85EA010586EA3E
:100F3000010685FA47F5A3FA87F586FA47F6A5FA7A
:100F400087F68EB9EED1F0BC01F0FF0102F0070286
:100F500032B110F8013B013A83EA010313B1F8D131
:100F60000020704701387047002D06BF3546033812
:100F7000073815F0010F07D1013015F4807F02BF4B
:100F8000013015F4C03F0130F0BC0138704700BF9C
:100F900080B483B000AF7860044A7B68136000BF00
:100FA0000C37BD465DF8047B704700BF800400200D
:100FB00080B584B000AF78602B4A7B6813602B4902
:100FC0002B4817F004FF29492A4817F000FF27494A
:100FD000294817F0FCFE294B1B681B680120984725
:100FE00001F0B0FA00F008F9002001F0DFFA234B1D
:100FF0001B689B68224898470023FB7320E0FA7B1C
:10100000204913465B0013440B441B78184601F03B
:1010100019FBFA7B1B4913465B0013440B44013355
:101020001B7898B2FA7B174913465B0013440B44B4
:1010300002331B78194601F057FBFB7B0133FB732E
:10104000FB7B0F2BDBD9002001F0FCFA0E4B0022BA
:101050001A710A4B1B685B689847034602331846AF
:101060001037BD4680BD00BF7C030020ED2800087E
:10107000B818002048190020CC1800208004002057
:101080000000002020ED0108E018002080B400AF2F
:10109000034B1B791846BD465DF8047B704700BFC3
:1010A000E018002080B586B000AF78601A4A7B68EF
:1010B00093607B68194AA2FB03231B0B7B617B694E
:1010C00043F6095202FB03F37A68D31A3B617B694A
:1010D0001A023B691B0203F5F45304330F49A1FBC9
:1010E00003131B0B1344FB60FB681B0CDBB219469C
:1010F000062001F0F9FAFB681B0ADBB2194607204B
:1011000001F0F2FAFB68DBB21946082001F0ECFAB4
:1011100000BF1837BD4680BDE018002083DE1B43AA
:1011200080B586B000AFB9607B600346FB731346A1
:10113000BB810123FB750023BB8200233B61FB7B4A
:10114000184601F07FFAB868FFF7ACFF052001F000
:101150002DFA01201AF0CBFC17F0B1FF38610EE038
:10116000FB7B184601F0B0F90346BB82B7F91420A7
:10117000B7F90C309A4202DD0023FB7506E03869AE
:1011800017F0ABFF02467B689342E9D800F008FFF6
:10119000FB7D18461837BD4680BD80B582B000AFD4
:1011A00000233B60012001F04DFAFF21112001F0E6
:1011B0009BFA052001F0FAF90023FB7111E00120F0
:1011C0001AF095FC2C2001F0A1FA034603F001026D
:1011D000FB7902FA03F33A6813433B60FB7901336E
:1011E000FB71FB791F2BEAD900F0DAFE3B68184649
:1011F0000837BD4680BD000090B587B000AF09201C
:1012000001F084FA0346FB75062001F07FFA0346DD
:101210001C04072001F07AFA03461B021C43082035
:1012200001F074FA034623433B613B691B0AFB60F0
:10123000FB681B023A69D31ABB60FB6843F609528C
:1012400002FB03F2BB6843F6095101FB03F3803351
:101250001B0A13447B600021092001F045FA3B2062
:1012600001F054FA034643F04003DBB219463B2039
:1012700001F03AFA00BF3B2001F048FA034603F0C0
:101280002003202BF7D01148FFF70CFF3B2001F083
:101290003DFA034643F04003DBB219463B2001F020
:1012A00023FA00BF3B2001F031FA034603F020038C
:1012B000202BF7D0FB7D1946092001F015FA78683C
:1012C000FFF7F0FE00BF1C37BD4690BD00A1BC3348
:1012D00080B485B000AF78600023FB7317E0FB7B20
:1012E000104A52F833307A689A420DD3FB7B0133AF
:1012F0000C4A52F833307A689A4205D2FB7B094A8D
:10130000DB0013441B7906E0FB7B0133FB73FB7BA3
:10131000142BE4D9FEE718461437BD465DF8047B6C
:10132000704700BF50ED0108B0B584B000AFB960A0
:101330007A601A460346FB731346BB73FB7B184661
:1013400001F080F9FB7B002B03D0012B00F0CF8054
:1013500001E2954ABB685361934A7B68D361924A24
:101360003B6A9361904A97F82C3082F822308E4A7B
:1013700097F8303082F823308B4A97F8343082F86F
:101380002430894A97F8403082F82530864A97F809
:10139000443082F82630844ABB8C13843B8D184637
:1013A000FFF768F804460D467868FFF753F80246E1
:1013B0000B464FF000007D49FFF7F0F902460B465F
:1013C000104619464FF00002794BFFF7BDF8024670
:1013D0000B4620462946FFF7B7F803460C46184649
:1013E00021464FF00002734BFFF7AEF803460C4660
:1013F00018462146FFF780FB02466B4BDA6278689D
:10140000FFF728F803460C461A46234664A1D1E9A3
:101410000001FFF7C3F903460C4618462146FFF7C3
:101420006BFB03469BB27B607B681B0ADBB21946F1
:10143000022001F059F97B68DBB21946032001F064
:1014400053F9B868FFF744FF03461946122001F02C
:101450004BF9386AFFF73CFF03461946132001F0A9
:1014600043F9BB8C1B0A9BB2DBB21946252001F065
:101470003BF9BB8CDBB21946262001F035F997F811
:101480002C30002B06D097F830301946322001F06E
:101490002BF903E0FF21322001F026F9302001F082
:1014A00035F903465BB203F06F035BB297F82C206B
:1014B000002A01D0002201E06FF07F0213435AB2EC
:1014C00097F834301B015BB213435BB2DBB21946B1
:1014D000302001F009F9312001F018F9034643F0FA
:1014E0004003DBB21946312001F0FEF833E1BB685E
:1014F000022B00D9FEE7BB680733BB602A4ABB68F2
:101500005364294A7B689364274ABB7B82F84D3039
:10151000254ABB8CA2F84E30234A97F82C3082F82B
:101520005030214A97F8303082F851301E4A97F8EF
:10153000343082F852301C4A97F8383082F85330F1
:10154000194A97F83C3082F85430174A97F84030DF
:1015500082F85530144A97F8443082F856307B6848
:101560000C2B02D90C237B6004E07B68052B01D88F
:1015700006237B60BB68072B05D17B680B2B08D04B
:101580007B680C2B05D0BB68082B15D17B680C2B16
:1015900012D1054B012283F84C2011E0AFF30080FB
:1015A0000000000080847E41E01800200000F03F31
:1015B0000000204000408F40694B002283F84C20FF
:1015C0001D2001F0A3F8BB68DBB21B01DAB2BB7BC4
:1015D0005B00DBB21343DAB297F82C301343DBB273
:1015E00019461D2001F080F81E2001F08FF80346F7
:1015F00003F00803DAB27B68DBB21B01DBB21343F2
:10160000DAB297F834309B00DBB21343DAB23B8D89
:101610001B0A9BB2DBB203F00303DBB21343DBB262
:1016200019461E2001F060F8262001F06FF80346ED
:101630005BB223F008035AB2494B93F84C30DB00FD
:101640005BB213435BB2DBB21946262001F04CF8C3
:101650003B8DDBB219461F2001F046F8BB8C1B0AFC
:101660009BB2DBB21946202001F03EF8BB8CDBB206
:101670001946212001F038F897F82C30002B05D0BE
:1016800097F830301946222001F02EF8344B93F8A9
:101690005330002B11D0442001F038F8034663F09A
:1016A0007F03DBB21946442001F01EF82C4B93F85F
:1016B00054301946242001F017F8BB68092B0DD1CE
:1016C000274B9B68274A934208D90221362001F014
:1016D0000BF864213A2001F007F80FE0BB68092BF2
:1016E00008D10221362000F0FFFF7F213A2000F0D0
:1016F000FBFF03E00321362000F0F6FF7B68062B9A
:1017000014D1312001F002F803465BB223F0070345
:101710005BB243F005035BB2DBB21946312000F047
:10172000E3FF0C21372000F0DFFF13E0312000F051
:10173000EDFF03465BB223F007035BB243F0030304
:101740005BB2DBB21946312000F0CEFF0A21372010
:1017500000F0CAFF00BF00BF1037BD46B0BD00BFDC
:10176000E018002040DD4A1F90B585B000AFBA6098
:101770007B600346FB730B46BB73FB7B184600F094
:1017800061FF814B1B68DB6897F90E201046984774
:10179000FB7B002B03D0012B00F099808EE17B4A6C
:1017A000BB7B1373794ABB681361784A7B685361CA
:1017B000764A3B6AD361754A3B8D1384734A97F826
:1017C0002C3082F82230714A97F8303082F8243079
:1017D0006E4A97F83C3082F825306C4A3B6C936235
:1017E000B868FEF737FE64A3D3E90023FEF7D6FFFF
:1017F00003460C4618462146FFF77EF903469BB286
:10180000BB60BB681B0ADBB21946042000F06CFF0A
:10181000BB68DBB21946052000F066FF386AFEF7A8
:1018200019FE03460C461A46234655A1D1E900018C
:10183000FEF7B4FF03460C4618462146FFF75CF955
:1018400003469BB23B623B6A1B0ADBB2194602208D
:1018500000F04AFF3B6ADBB21946032000F044FF68
:101860003B8D1B0A9BB2DBB21946252000F03CFFE2
:101870003B8DDBB21946262000F036FF302000F009
:1018800045FF03465BB203F06F035BB297F82C2071
:10189000002A01D0002201E06FF07F0213435AB208
:1018A00097F830301B015BB213435BB2DBB21946D1
:1018B000302000F019FF312000F028FF034643F0EC
:1018C0004003DBB21946312000F00EFFF6E02F4A4C
:1018D000BB7B82F840307B68022B00D9FEE77B6837
:1018E00007337B60294A7B685364284A3B6A9364C8
:1018F000264A97F8243082F84D30244A3B8DA2F8CE
:101900004E30224A97F82C3082F850301F4A97F810
:10191000343082F853301D4A97F8383082F854300A
:101920001A4A97F8303082F85230184A97F83C300B
:1019300082F85530154A3B6C93653B6A0C2B02D9F3
:101940000C233B6204E03B6A052B01D806233B6273
:101950007B68072B05D13B6A0B2B08D03B6A0C2B0D
:1019600005D07B68082B13D13B6A0C2B10D1074B99
:10197000012283F84C200FE00000000080844E40DC
:101980000000000080847E4180040020E0180020D8
:101990004C4B002283F84C204A4B93F85330002BD9
:1019A00011D0442000F0B2FE034663F07F03DBB2A7
:1019B0001946442000F098FE424B93F854301946E3
:1019C000242000F091FE1D2000F0A0FE7B68DBB219
:1019D0001B01DAB297F824305B00DBB21343DAB2B2
:1019E00097F82C301343DBB219461D2000F07CFE23
:1019F0001E2000F08BFE034603F00B03DAB23B6AB5
:101A0000DBB21B01DBB21343DAB297F830309B0034
:101A1000DBB21343DBB219461E2000F065FE262020
:101A200000F074FE03465BB223F008035AB2254B64
:101A300093F84C30DB005BB213435BB2DBB2194668
:101A4000262000F051FE3B8D1B0A9BB2DBB21946EB
:101A5000202000F049FE3B8DDBB21946212000F02A
:101A600043FE3B6A062B14D1312000F04FFE0346A3
:101A70005BB223F007035BB243F005035BB2DBB25A
:101A80001946312000F030FE0C21372000F02CFEEA
:101A900013E0312000F03AFE03465BB223F0070367
:101AA0005BB243F003035BB2DBB21946312000F0B6
:101AB0001BFE0A21372000F017FE00BF00BF1437BD
:101AC000BD4690BDE0180020F0B595B000AF0346CC
:101AD0000A46FB711346BB710023FB64FB79002BA4
:101AE00003D0012B00F092809CE1AB4B1B8C1C4679
:101AF000272000F00BFE034623F0F80301332344B4
:101B00001846FEF7B7FC04460D46A34B93F8223067
:101B1000002B04D04FF000004FF0000102E04FF026
:101B200000009E4922462B46FEF758FB03460C4612
:101B300025461C46302000F0E9FD034623F0F9035A
:101B4000002B03D04FF00000944903E04FF0000059
:101B50004FF0000122462B46FEF740FB03460C46A1
:101B600025461C46BB791846FEF784FC02460B4608
:101B700020462946FEF732FB03460C4625461C4606
:101B8000854B93F82430002B04D04FF000004FF029
:101B9000804103E04FF000004FF0000122462B4649
:101BA000FEF71CFB03460C46184621464FF0000288
:101BB0007B4BFEF7C9FC03460C4625461C46764B7C
:101BC000DB691846FEF746FC02460B4620462946CE
:101BD000FEF7E4FD03460C46184621464FF000028E
:101BE000704BFEF7B1FC03460C4644EC173BB0EEDD
:101BF000470AF0EE670A1AF033FE54EC103B184621
:101C00002146FEF779FF0346FB640BE14FF000032A
:101C10004FF00004C7E910345F4B5B6C082B09D010
:101C2000092B0DD0072B11D155A4D4E90034C7E9F5
:101C300010340BE054A4D4E90034C7E9103405E0B3
:101C400053A4D4E90034C7E9103400BF524B9B6C55
:101C5000012202FA03F31846FEF70CFC03460C4679
:101C60001A462346D7E91001FEF798FD03460C46B5
:101C7000C7E90E34D7E90E234FF000004749FEF7BD
:101C80008DFD03460C46C7E90C34434BB3F84E3088
:101C90001846FEF7EFFB4FF00002434BFEF79EFAAB
:101CA00003460C461A462346D7E90C01FEF74CFCC6
:101CB00003460C46C7E90A34BB79DB001A46364BAB
:101CC0009B6C9B00D31A344A92F8522012011A449A
:101CD000314B93F85030002B01D0142300E0002347
:101CE000D31A1C331846FEF7B5FB04460D462A4BA3
:101CF0009A6C294B93F84C30002B01D0022300E062
:101D00000023D31A9B001846FEF7A4FB02460B469D
:101D100020462946FEF742FD03460C4644EC173B9D
:101D2000B0EE470AF0EE670A1AF08AFC56EC105B38
:101D3000194B93F84D3004331846FEF79BFB0346CE
:101D40000C461A46234628463146FEF7FDFB03465D
:101D50000C46C7E908344FF000024FF00003D7E902
:101D60000801FEF781FE0346002B1FD04FF0000252
:101D70000B4BD7E90801FEF731FA03460C4618E091
:101D8000000000008084FE400000000080840E41BE
:101D90000000000080841E41E01800200000F03F99
:101DA0000000204000408F40000011404FF0000331
:101DB000214CC7E90634D7E90C23D7E90601FEF721
:101DC000C3FB03460C46C7E90434D7E90423D7E92B
:101DD0000A01FEF703FA03460C46C7E902344FF046
:101DE0000002164BD7E90201FEF7AEFB03460C4694
:101DF000184621460EA3D3E90023FEF7EFF9034668
:101E00000C4644EC173BB0EE470AF0EE670A1AF0B6
:101E10009FFC54EC103B18462146FEF76DFE03462E
:101E2000FB6400BFFB6C18465437BD46F0BD00BFD5
:101E30002B8716D9CEF7EF3F0000204000408F409F
:101E400080B584B000AF78600B46FB700023FB6068
:101E5000514B5B79002B02D0012B45D094E04E4BC7
:101E600000229A87FB789AB24B4B5A874A4B93F8D9
:101E7000223083F00103DBB2002B05D0FB1C0121D3
:101E8000184600F0BBFC04E0FB781946322000F055
:101E90002BFCFB78002B07D0FB78402B04D8FA787A
:101EA0003D4B83F83F200AE0FB789BB21A467968E5
:101EB0003A4817F0C8FA384B202283F83F20364BB7
:101EC00093F83F301946786800F098FC324B9A8FAF
:101ED000314B93F83F309BB213449AB22E4B9A8702
:101EE0002D4B9B6AFB604FE02B4B93F85530002B3A
:101EF0000FD0332000F00AFC034623F04103DBB28D
:101F00001946332000F0F0FB19213B2000F0ECFBD8
:101F100013E0332000F0FAFB03465BB223F04103E9
:101F20005BB243F001035BB2DBB21946332000F031
:101F3000DBFB1D213B2000F0D7FBFA78164B83F822
:101F40006420FB781946222000F0CEFB00210E20F1
:101F500000F0CAFB00210D2000F0C6FB012000F0BC
:101F6000D5FB034623F0F803002B04D100F02EF834
:101F7000012019F0BCFDFB781946786800F03EFCA2
:101F8000054B9B6DFB6000BFF86800F0AFF900BF28
:101F90001037BD4680BD00BFE01800208003002040
:101FA00080B500AF064816F0F1FF064816F0EEFFC8
:101FB000002000F0FBFA044B00221A7100BF80BD24
:101FC00048190020B8180020E018002080B500AFA4
:101FD000064816F0DBFF064816F0D8FF012000F097
:101FE000E5FA044B00221A7100BF80BD4819002099
:101FF000B8180020E018002080B584B000AF7860E9
:102000000023FB73B54B5B79002B02D0012B3CD036
:102010002CE1B24B93F82630FB73402000F076FBA6
:1020200003465BB203F003035BB243F00C035BB205
:10203000DBB21946402000F057FB412000F066FB60
:10204000034663F03E03DBB21946412000F04CFB2F
:10205000352000F05BFB034603F03F03DAB29F4BF1
:1020600083F83E201E210D2000F03EFB9B4B0022FA
:1020700083F83020994B002283F83120974B0022BF
:102080009A87964B00225A87F0E0944B93F855308C
:10209000002B0FD0332000F039FB034643F04103FF
:1020A000DBB21946332000F01FFB19213B2000F062
:1020B0001BFB13E0332000F029FB03465BB223F047
:1020C00041035BB243F001035BB2DBB2194633203C
:1020D00000F00AFB1D213B2000F006FB7F4B5B6CF0
:1020E000082B00F28780312000F010FB034603F03C
:1020F0007F03DBB21946312000F0F6FA00213020D0
:1021000000F0F2FA754B5B6C082B7ED801A252F8F6
:1021100023F000BF39210008532100086D21000879
:1021200087210008A1210008BB210008D521000853
:10213000DF210008E921000848212F2000F0D4FA0F
:10214000664B9B6803F5F45302331846FEF7AAFF6B
:102150005BE044212F2000F0C7FA604B9B6803F539
:10216000225334331846FEF79DFF4EE044212F20C2
:1021700000F0BAFA594B9B6803F5745304331846C0
:10218000FEF790FF41E044212F2000F0ADFA534BC1
:102190009B6803F5A2435E331846FEF783FF34E0E5
:1021A00044212F2000F0A0FA4C4B9B6803F5F44328
:1021B00012331846FEF776FF27E044212F2000F067
:1021C00093FA464B9B6803F52243C6331846FEF745
:1021D00069FF1AE040212F2000F086FA15E0402127
:1021E0002F2000F081FA10E040212F2000F07CFA2F
:1021F00000BF0AE0312000F089FA034663F07F0354
:10220000DBB21946312000F06FFA344B93F85630A8
:10221000FB73324B93F85330002B0FD01D2111204C
:1022200000F062FA402000F071FA034603F0330335
:10223000DBB21946402000F057FA0EE01F211120B2
:1022400000F052FA402000F061FA034603F03F0329
:10225000DBB21946402000F047FA00210F2000F0C1
:1022600043FA00210D2000F03FFA00BF4FF48072C6
:1022700000211B481AF0A3FC184B01221A717B683D
:10228000002B06D07968174816F0F8FE154816F0AE
:10229000B9FD124B5B79002B12D1052000F086F9B5
:1022A000FB7B83F00103DBB2002B13D00B4BDB6A0B
:1022B00019460D4816F0E2FE0B4816F0A3FD09E0A2
:1022C000FB7B002B03D0052000F070F902E0062014
:1022D00000F06CF900BF1037BD4680BDE01800204B
:1022E0008003002048190020CC18002080B582B05F
:1022F00000AF78607968364816F0C0FE354B5B79E0
:10230000002B02D0012B26D054E0402000F0FEF933
:1023100003465BB203F003035BB243F010035BB20E
:10232000DBB21946402000F0DFF9412000F0EEF961
:10233000034603F03E03DBB21946412000F0D4F916
:10234000352000F0E3F9034603F03F03DAB2214BF6
:1023500083F83E202EE01F4B93F85330002B14D00F
:10236000F521112000F0C0F9402000F0CFF903461C
:102370005BB203F033035BB243F040035BB2DBB20A
:102380001946402000F0B0F913E0F721112000F0C9
:10239000ABF9402000F0BAF903465BB203F03F030B
:1023A0005BB243F040035BB2DBB21946402000F061
:1023B0009BF900BF074B02221A71054816F022FD57
:1023C000032000F0F3F800BF0837BD4680BD00BF12
:1023D000B8180020E018002080B500AF0F4B5B79E3
:1023E000002B18D0012B00D016E0FA21112000F0AC
:1023F0007BF9402000F08AF9034623F00303DBB2A7
:102400001946402000F070F9044B03221A7107208E
:1024100000F0CCF800E000BF00BF80BDE018002055
:1024200080B58EB00AAF78600B46FB7013463B80D8
:102430003B884FF47A7202FB03F3FB607868FEF787
:1024400031FE97F90310FB680893002307930023DC
:10245000069300230593002304930023039305238D
:102460000293002301934FF496530093002300221C
:102470000020FFF779F9312000F048F9034623F0F6
:102480004003DBB21946312000F02EF9F021402044
:1024900000F02AF9A021412000F026F9F968084847
:1024A00016F0ECFD074B02221A71054816F0AAFC43
:1024B000032000F07BF800BF1037BD4680BD00BF91
:1024C000B8180020E018002080B584B000AF0346A3
:1024D000FB710023FB81FB79002B02D0012B0BD079
:1024E00021E0112000F012F903465B08DBB29BB239
:1024F0005B429BB2FB811AE0104B9B68104A9342EF
:1025000008D91B2000F002F903469BB29D3B9BB209
:10251000FB810CE01B2000F0F9F803469BB2A43BC2
:102520009BB2FB8103E04FF6FF73FB8100BFB7F95D
:102530000E3018461037BD4680BD00BFE0180020A1
:1025400040DD4A1F80B586B000AF3B1D00221A60F7
:102550005A609A60DA601A610123BB600023FB6055
:1025600003233B613B1D1A464FF400714FF090402E
:1025700017F01CFA00224FF400714FF0904017F052
:10258000D1FA012019F0B3FA0023BB603B1D1A46B3
:102590004FF400714FF0904017F008FA062019F040
:1025A000A6FA00BF1837BD4680BD000080B582B0D6
:1025B00000AF0346FB71FB79002B1BD1012000F01B
:1025C000A5F803465BB223F007035AB297F9073028
:1025D00013435BB2DBB21946012000F085F8184BBB
:1025E0001B681B6901209847154B1B681B6800205E
:1025F000984720E0124B1B681B6801209847104B3E
:102600001B681B69002098470D4B1B685B69FA79B2
:1026100010469847012000F079F803465BB223F09A
:1026200007035AB297F9073013435BB2DBB219467E
:10263000012000F059F800BF0837BD4680BD00BF3B
:102640008004002080B582B000AF0346FB710120FA
:1026500000F05CF803465BB2002B03DA214B012249
:102660005A7102E01F4B00225A711E4B5B79FA79B6
:102670009A4233D01B4AFB7953711A4B5B79012B79
:1026800015D0FFF78DFC012000F040F8034603F061
:102690007F03DBB21946012000F026F8002140201C
:1026A00000F022F83021412000F01EF817E0FFF77B
:1026B00077FC012000F02AF8034663F07F03DBB2C9
:1026C0001946012000F010F80021402000F00CF81D
:1026D0000021412000F008F800BF00E000BF0837EB
:1026E000BD4680BDE018002080B582B000AF034633
:1026F0000A46FB8013467B71791DFB880122184630
:1027000000F016F800BF0837BD4680BD80B584B024
:1027100000AF0346FB8007F10F01FB88012218463A
:1027200000F038F8FB7B18461037BD4680BD00002E
:1027300080B584B000AF03463960FB8013467B71DF
:1027400000220421124817F0EDF9FB8843F08003C2
:102750009BB2184617F06EFE0023FB730AE0FB7B6A
:102760003A6813441B789BB2184617F063FEFB7B54
:102770000133FB73FA7B7B799A42F0D30122042167
:10278000034817F0CFF900BF1037BD4680BD00BF2A
:10279000000C004880B584B000AF03463960FB8070
:1027A00013467B7100220421134817F0BBF9FB8804
:1027B00003F07F039BB2184617F03CFE0023FB7327
:1027C0000CE0002017F036FE03461946FB7B3A6802
:1027D0001344CAB21A70FB7B0133FB73FA7B7B791B
:1027E0009A42EED301220421034817F09BF900BF5F
:1027F0001037BD4680BD00BF000C004880B582B0D8
:1028000000AF78600B46FB70FB781A4679680020B1
:10281000FFF78EFF00BF0837BD4680BD80B582B090
:1028200000AF78600B46FB70FB781A467968002091
:10283000FFF7B0FF00BF0837BD4680BD80B582B04E
:1028400000AF03460A46FB711346BB71FB7918467D
:10285000FFF7F8FEFB79002B02D0012B0ED014E01D
:102860000C4B93F8223083F00103DBB2002B0BD02A
:10287000BB7919463220FFF737FF05E0BB791946CF
:102880002320FFF731FF00E000BF00BF0837BD463F
:1028900080BD00BFE018002080B582B000AF0346C5
:1028A000FB710120FFF7CEFE094AFB7982F85C300C
:1028B000FB79002B04D034213920FFF715FF03E00A
:1028C00012213920FFF710FF00BF0837BD4680BD39
:1028D000E018002080B500AF034B1B685B68984789
:1028E00003460233184680BD8004002080B582B0C4
:1028F00000AF4C4B1B79012B02D0022B42D08CE055
:10290000484B5B79002B2FD1464B002283F83020B7
:10291000444B002283F83120424B00229A87414BDE
:1029200000225A870B213E20FFF7DEFE10213F20B8
:10293000FFF7DAFE3B4B93F82630002B0ED00D202C
:10294000FFF7E4FE034643F04003DBB219460D20D7
:10295000FFF7CAFE344816F055FA05E0314B002265
:102960001A71314816F012FB304B1B68002B51D006
:102970002E4B1B68DB68002B4CD02C4B1B68DB6894
:10298000984747E0FFF7DEFDFEF736FC0020FFF733
:102990000DFE0023FB7120E0FA79254913465B0008
:1029A00013440B441B781846FFF74CFEFA79204974
:1029B00013465B0013440B4401331B7898B2FA7939
:1029C0001B4913465B0013440B4402331B78194622
:1029D000FFF78AFEFB790133FB71FB790F2BDBD903
:1029E0000020FFF72FFE0F4B93F85C301846FFF7DF
:1029F00053FF0C4B00221A710C4B1B68002B0BD0A1
:102A00000A4B1B685B68002B06D0084B1B685B6891
:102A1000984701E000BF00E000BF00BF0837BD4697
:102A200080BD00BFE0180020CC1800207C030020EF
:102A300020ED010890B583B000AF0023FB709D4BE3
:102A40001B79012B03D0022B00F0E281FDE1994BB1
:102A50005B79002B03D0012B00F0DE80D7E1954B92
:102A600093F82430002B4ED03F20FFF74FFE034653
:102A7000FB70FB78DBB203F00203022B43D00B2187
:102A80003E20FFF731FE10213F20FFF72DFE8A4840
:102A900016F07CFA874B93F8263083F00103DBB203
:102AA000002B06D0854816F071FA824B00221A716D
:102AB0000DE00D20FFF72AFE034643F04003DBB292
:102AC00019460D20FFF710FE7C4816F09BF97C4B51
:102AD0001B68002B08D07A4B1B681B69002B03D0A6
:102AE000774B1B681B699847724B002283F8302094
:102AF000704B002283F831206E4B00229A876D4B79
:102B000000225A8783E16B4B5B8F002B2CD1694BE2
:102B10009B8F002B28D1674B93F8223083F0010361
:102B2000DBB2002B04D001216648FFF777FE06E0F8
:102B30003220FFF7EBFD03469AB25E4B5A875D4B9E
:102B40009B8F1A46604BD0185A4B5B8FDAB2594BA9
:102B50009B8FDBB2D31ADBB21946FFF75FFE554BF2
:102B60005A8F544B9A8713E0524B9B8F1A46564B01
:102B7000D018504B5B8FDAB24E4B9B8FDBB2D31A1F
:102B8000DBB21946FFF74AFE4A4B5A8F494B9A87E8
:102B9000494816F0FBF9474B93F8263083F00103C0
:102BA000DBB2002B06D0434B00221A71434816F0CB
:102BB000EDF90DE00D20FFF7A9FD034643F04003BA
:102BC000DBB219460D20FFF78FFD3C4816F01AF9CD
:102BD0003B4B1B68002B10D0394B1B689B68002BAC
:102BE0000BD0374B1B689C68324B598F314B93F994
:102BF00032301AB200233448A0472E4B002283F80B
:102C000030202C4B002283F831202A4B00229A8757
:102C1000284B00225A87FAE00023FB714021122042
:102C2000FFF762FD1220FFF771FD0346FB70FB7892
:102C3000DBB203F02003202B21D120211220FFF74B
:102C400053FD1C4B93F8563083F00103DBB2002B8D
:102C500002D0184B00221A71174816F097F9184B3A
:102C60001B68002B00F0D080154B1B681B69002BE4
:102C700000F0CA80124B1B681B699847C4E01920FA
:102C8000FFF744FD03465AB20A4B83F86020094B14
:102C900093F96030002B19DA064B93F960305B42F0
:102CA0009B105BB203F03F03FB71FB795B42DBB22D
:102CB000FB7113E0E018002048190020CC18002018
:102CC0007C0300201A19002080030020614B93F937
:102CD00060309B105BB203F03F03FB711A20FFF7DB
:102CE00015FD0346BB8097F90730002B2CDA594BB2
:102CF0009B68594A934213D9B7F904301B111BB290
:102D00009AB2BB8813449AB297F907309BB2134426
:102D10009BB29D3B9BB21AB24E4BA3F8622035E0AA
:102D2000B7F904301B111BB29AB2BB8813449AB294
:102D300097F907309BB213449BB2A43B9BB21AB2E3
:102D4000444BA3F8622021E0424B9B68424A9342E5
:102D50000ED9B7F904301B111BB29AB2BB881344C9
:102D60009BB29D3B9BB21AB23A4BA3F862200DE096
:102D7000B7F904301B111BB29AB2BB8813449BB243
:102D8000A43B9BB21AB2334BA3F862201320FFF787
:102D9000BDFC03461A462F4B83F864201020FFF732
:102DA000B5FC034619460D20FFF79EFC294B93F80E
:102DB000643019462948FFF731FD264B93F8563009
:102DC00083F00103DBB2002B02D0224B00221A71E8
:102DD000234816F0DBF8234B1B68002B16D0214B41
:102DE0001B689B68002B11D01E4B1B689C68194BFD
:102DF00093F8643099B2174BB3F96220154B93F9ED
:102E000060301648A04701E000BF1EE000BF1CE094
:102E1000154816F0BBF80F4B5B79012B03D1082145
:102E20001220FFF761FC0B4B00221A710D4B1B683F
:102E3000002B08D00B4B1B681B68002B03D0094BE1
:102E40001B681B68984700BF00BF00BF0C37BD461A
:102E500090BD00BFE018002040DD4A1F8003002025
:102E6000481900207C030020B818002080B500AF6E
:102E70005D4B1B79012B02D0022B73D0B2E05A4B71
:102E80005B79002B02D0012B53D06AE0564B5B8F4D
:102E9000002B17D1544B9B8F002B13D1524B93F81F
:102EA000223083F00103DBB2002B04D001214F4814
:102EB000FFF7B4FC06E03220FFF728FC03469AB285
:102EC000494B5A87484B5B8F1A46474B9B8FD31A07
:102ED000454A92F83E20934216DD434B9B8F1A469B
:102EE000434B1A44404B93F83E3019461046FFF7C7
:102EF00095FC3D4B9A8F3C4B93F83E309BB213446C
:102F00009AB2394B9A872CE0374B9B8F1A46384B35
:102F1000D018354B5B8FDAB2334B9B8FDBB2D31AB1
:102F2000DBB21946FFF77AFC2F4B5A8F2E4B9A874C
:102F300017E0304816F02AF880211220FFF7D4FB62
:102F4000294B00221A712C4B1B68002B08D02A4BEE
:102F50001B68DB68002B03D0274B1B68DB68984796
:102F600000BF3FE0204B5B79002B02D0012B37D014
:102F700037E01D4B5B8F1A461B4B9B8FD31A1A4AA7
:102F800092F83F20934216DD174B9B8F1A46184B41
:102F90001A44154B93F83F3019461046FFF72EFCA4
:102FA000114B9A8F104B93F83F309BB213449AB257
:102FB0000D4B9A8715E00C4B9B8F1A460C4BD01883
:102FC000094B5B8FDAB2084B9B8FDBB2D31ADBB2B3
:102FD0001946FFF713FC044B5A8F034B9A8700E006
:102FE00000BF00BF00BF80BDE01800201A190020FC
:102FF00080030020481900207C03002090B585B094
:1030000000AF0023FB60584B1B79012B02D0022B31
:103010007BD0A4E0544B5B79002B02D0012B51D024
:1030200072E0514B012283F830204F4B93F830303F
:10303000012B66D14C4B93F83130002B61D14B48BA
:1030400015F0A4FF484B012283F831201120FFF72F
:103050005DFB03465B08DBB25B42DBB25AB2424B1C
:1030600083F832201B20FFF751FB03461C021C2073
:10307000FFF74CFB03462343FB60FB681B0ABB6066
:10308000BB681B02FA68D31A7B60BB6843F609521F
:1030900002FB03F27B6843F6095101FB03F3803323
:1030A0001B0A13441A46304B5A630C20FFF72EFBC1
:1030B00003465B09DBB203F00703DAB22A4B83F85D
:1030C00038201EE0284B93F85330002B1BD00221F0
:1030D0001220FFF709FB264B1B68002B13D0244B53
:1030E0001B685B69002B0ED0214B1B685C691C20A0
:1030F000FFF70CFB034603F03F03DBB21846A04783
:1031000001E000BF2BE000BF29E0174B5B79002BEB
:1031100021D0012B00D021E0134B93F85330002B2A
:103120001BD002211220FFF7DFFA114B1B68002B86
:1031300013D00F4B1B685B69002B0ED00C4B1B6828
:103140005C691C20FFF7E2FA034603F03F03DBB2A1
:103150001846A04701E000BF00E000BF00BF00BF6D
:103160001437BD4690BD00BFE0180020CC180020E9
:103170007C03002080B500AF1C4B5B79002B30D066
:10318000012B00D030E01220FFF7C0FA034603F015
:103190000103012B12D105211220FFF7A5FA144BD0
:1031A0001B68002B1FD0124B1B689B69002B1AD089
:1031B0000F4B1B689B690120984714E004211220E3
:1031C000FFF792FA0A4B1B68002B0CD0084B1B68C8
:1031D0009B69002B07D0064B1B689B690020984712
:1031E00001E000BF00E000BF00BF80BDE01800208C
:1031F0007C03002080B400AF0C4B5B79002B02D025
:10320000012B0AD00CE0094B93F83030002B06D18B
:10321000064B012283F8302001E000BF00E000BF30
:1032200000BFBD465DF8047B704700BFE01800207A
:1032300080B400AF00231846BD465DF8047B70479C
:1032400080B483B000AF0346FB7100BF0C37BD46AE
:103250005DF8047B7047000080B586B000AF3B1D71
:1032600000221A605A609A60DA601A611348FDF70A
:103270008FFE134BBB600223FB6003233B613B1DAE
:103280001A4640210F4816F091FB3B1D1A4680213B
:103290000C4816F08BFB3B1D1A464FF48071094811
:1032A00016F084FB3B1D1A464FF40071054816F0DA
:1032B0007DFB00BF1837BD4680BD00BF1800002051
:1032C000000011100008004880B582B000AF78609F
:1032D0007B681B6800224021104816F0D3FB7B68F6
:1032E00004331B68002280210C4816F0CBFB7B685E
:1032F00008331B6800224FF48071084816F0C2FBA7
:103300007B680C331B6800224FF40071034816F0F1
:10331000B9FB00BF0837BD4680BD00BF00080048AC
:1033200080B586B000AF3B1D00221A605A609A60DB
:10333000DA601A61104BBB600223FB603B1D1A462A
:1033400040210E4816F032FB3B1D1A4680210B48E7
:1033500016F02CFB3B1D1A464FF48071074816F0FF
:1033600025FB3B1D1A464FF40071044816F01EFB66
:1033700000BF1837BD4680BD00001110000800488E
:1033800090B585B000AF0346FB710023FB730023AB
:10339000BB730920FFF7BAF90346FB734D20FFF713
:1033A000B5F90346BB7397F90F3003F07F035CB2A6
:1033B000454B9B68184600F089F803465BB22343EF
:1033C0005BB2FB73FB7B43F07003FB7397F90F3029
:1033D000002B4EDA97F90730112B04DDBB7B43F04D
:1033E0000703BB7308E097F90E3023F007035BB2C5
:1033F00043F004035BB2BB73BB7B03F00703072BF3
:103400001BD197F90730042B01DC0523FB7197F9D9
:103410000730142B01DD1423FB7197F90F3023F0D3
:103420000F035AB2FB79053BDBB25BB203F00F032B
:103430005BB213435BB2FB7337E097F90730012BA4
:1034400001DC0223FB7197F90730112B01DD1123F9
:10345000FB7197F90F3023F00F035AB2FB79023B4F
:10346000DBB25BB203F00F035BB213435BB2FB73DF
:103470001BE097F90730B3F1FF3F01DAFF23FB713F
:1034800097F907300E2B01DD0E23FB7197F90F30F2
:1034900023F00F035AB2FB790133DBB25BB203F0C6
:1034A0000F035BB213435BB2FB73FB7B194609202E
:1034B000FFF71AF9BB7B19464D20FFF715F900BF3E
:1034C0001437BD4690BD00BFE018002080B483B023
:1034D00000AF7860802318460C37BD465DF8047B4A
:1034E000704780B483B000AF0346FB7100BF0C3758
:1034F000BD465DF8047B704780B483B000AF0346DF
:10350000FB7100BF0C37BD465DF8047B704780B48B
:1035100083B000AF7860012318460C37BD465DF8D4
:10352000047B704780B582B000AF0023FB7103209D
:1035300001F031FC002018F0CFFA0346002B02D036
:103540000123FB7101E018F09DFAFB79184608375A
:10355000BD4680BD80B400AF044B1B680133034AF5
:10356000136000BFBD465DF8047B70475C19002006
:1035700080B400AF034B1B681846BD465DF8047B62
:10358000704700BF5C19002080B483B000AF786042
:1035900039607B689B6823F47C123B681A437B6824
:1035A0009A6000BF0C37BD465DF8047B704780B45D
:1035B00083B000AF786039607B689B6823F0E0726D
:1035C0003B681A437B689A6000BF0C37BD465DF8C4
:1035D000047B704780B483B000AF78607B689B68E1
:1035E00003F0E07318460C37BD465DF8047B704766
:1035F00090B484B000AFF860B9607A603B60FB685B
:1036000060331A46BB689B0013441C462268084B73
:1036100013407A6802F0F8413A680A43134343F0D2
:103620000043236000BF1037BD4690BC704700BF09
:1036300000F0FF0390B482B000AF786039607B681F
:1036400060331A463B689B0013441C46236803F012
:10365000F84318460837BD4690BC704790B484B014
:1036600000AFF860B9607A60FB6860331A46BB68E7
:103670009B0013441C46236823F000427B681343DD
:10368000236000BF1037BD4690BC704780B483B044
:1036900000AF78607B68DB6803F44063002B01D1E6
:1036A000012300E0002318460C37BD465DF8047B7B
:1036B000704790B484B000AFF860B9607A60FB687E
:1036C00030331A46BB681B0A9B0003F00C031344FB
:1036D0001C462268BB6803F01F031F2101FA03F395
:1036E000DB431A407B689B0E03F01F01BB6803F0AD
:1036F0001F0301FA03F31343236000BF1037BD46D5
:1037000090BC704790B484B000AFF860B9607A6044
:10371000FB6814331A46BB685B0E9B0003F004037E
:1037200013441C462268BB681B0D03F01F030721CE
:1037300001FA03F3DB431A40BB681B0D03F01F03C0
:10374000796801FA03F31343236000BF1037BD46C5
:1037500090BC704780B485B000AFF860B9607A6003
:10376000FB68D3F8B020BB68C3F31203DB431A40F5
:103770007B6803F018030849D940BB680B40C3F3CA
:1037800012031A43FB68C3F8B02000BF1437BD46CC
:103790005DF8047B704700BFFFFF070080B483B073
:1037A00000AF78607B689B6803F01F0318460C37F6
:1037B000BD465DF8047B704780B483B000AF78608D
:1037C0007B689B6803F4604318460C37BD465DF880
:1037D000047B704780B483B000AF78607B689B68DF
:1037E00023F0204323F03F037A68936000BF0C3737
:1037F000BD465DF8047B704780B483B000AF78604D
:103800007B689B6803F00053B3F1005F01D1012393
:1038100000E0002318460C37BD465DF8047B704776
:1038200080B483B000AF78607B689B6823F010435E
:1038300023F03F0343F080527B689A6000BF0C374F
:10384000BD465DF8047B704780B483B000AF7860FC
:103850007B689B6803F08053B3F1805F01D1012343
:1038600000E0002318460C37BD465DF8047B704726
:1038700080B483B000AF78607B689B6823F000431E
:1038800023F03F0343F001027B689A6000BF0C37CE
:10389000BD465DF8047B704780B483B000AF7860AC
:1038A0007B689B6823F0004323F03F0343F0020250
:1038B0007B689A6000BF0C37BD465DF8047B70479B
:1038C00080B483B000AF78607B689B6803F001032D
:1038D000012B01D1012300E0002318460C37BD461F
:1038E0005DF8047B704780B483B000AF78607B687C
:1038F0009B6803F00203022B01D1012300E00023A7
:1039000018460C37BD465DF8047B704780B483B021
:1039100000AF78607B689B6823F0004323F03F038F
:1039200043F004027B689A6000BF0C37BD465DF827
:10393000047B704780B483B000AF78607B689B687D
:1039400023F0004323F03F0343F010027B689A60AA
:1039500000BF0C37BD465DF8047B704780B483B070
:1039600000AF78607B689B6803F00403042B01D1EF
:10397000012300E0002318460C37BD465DF8047BA8
:10398000704780B483B000AF78607B689B6823F099
:10399000004323F03F0343F020027B689A6000BF9E
:1039A0000C37BD465DF8047B704780B483B000AF30
:1039B00078607B689B6803F00803082B01D1012322
:1039C00000E0002318460C37BD465DF8047B7047C5
:1039D00090B589B000AF78600023FB770023BB600F
:1039E0007B68002B01D1012334E17B681B69002B2C
:1039F0007B685B6D002B09D1786815F053FE7B68FE
:103A000000229A657B68002283F850207B681B683F
:103A10001846FFF7F1FE0346002B04D07B681B68B5
:103A20001846FFF7D7FE7B681B681846FFF70CFFA8
:103A30000346002B13D17B681B681846FFF7F0FE86
:103A4000864B1B689B09864AA2FB03239B09BB602C
:103A500002E0BB68013BBB60BB68002BF9D17B680F
:103A60001B681846FFF7F0FE0346002B0DD17B685C
:103A70005B6D43F010027B685A657B689B6D43F079
:103A800001027B689A650123FB777B681B681846F7
:103A9000FFF764FF78617B685B6D03F01003002B18
:103AA00040F0CF807B69002B40F0CB807B685B6D62
:103AB00023F4817343F002027B685A657B681B68BC
:103AC0001846FFF7FDFE0346002B15D16548FFF7AA
:103AD000F7FE04466448FFF7F3FE03461C436348C1
:103AE000FFF7EEFE03462343002B05D17B685B689E
:103AF00019465F48FFF748FD7B685B7E5A037B6889
:103B00005B6B1A437B68DB681A437B689B681A43CC
:103B10007B6893F820301B041343BB617B6893F8E8
:103B20002030012B06D17B685B6A013B5B04BA69DC
:103B30001343BB617B689B6A002B09D07B689B6A3F
:103B400003F470727B68DB6A1343BA691343BB6189
:103B50007B681B68DA68474B13407A681268B9695A
:103B60000B43D3607B681B681846FFF7F7FE38618C
:103B70007B681B681846FFF718FFF8603B69002B4D
:103B80003DD1FB68002B3AD17B681B7E9A037B6892
:103B900093F830305B001343BB617B681B68DB68C4
:103BA00023F4804323F002037A681268B9690B4357
:103BB000D3607B6893F83830012B18D17B681B6881
:103BC0001B6923F4FF6323F004037A68D16B7A68DE
:103BD000126C11437A68526C11437A68926C0A43F2
:103BE0001A437B681B6842F001021A6107E07B6898
:103BF0001B681A697B681B6822F001021A617B68E6
:103C00001B69012B0CD17B681B681B6B23F00F0118
:103C10007B68DB695A1E7B681B680A431A6307E0EE
:103C20007B681B681A6B7B681B6822F00F021A63A3
:103C30007B685B6D23F0030343F001027B685A65E8
:103C400007E07B685B6D43F010027B685A650123D7
:103C5000FB77FB7F18462437BD4690BD84010020CA
:103C6000632D3E0500000450000104500002045082
:103C70000003045007C0F0FF80B586B000AF786045
:103C80005748FFF78BFD38617B681B681846FFF7C4
:103C900065FE0346002B40F09C807B6893F8503013
:103CA000012B01D1022397E07B68012283F8502089
:103CB000786800F0C3FD0346FB75FB7D002B40F0E8
:103CC00083807B685B6D23F4706323F0010343F40E
:103CD00080727B685A657B681B68424A934202D0B7
:103CE0007B681B6800E0404B7A681268934202D000
:103CF0003B69002B05D17B685B6D23F480127B68E8
:103D00005A657B685B6D03F48053B3F5805F06D121
:103D10007B689B6D23F006027B689A6502E07B68F6
:103D200000229A657B681B681C221A607B6800224F
:103D300083F850207B681B682A4A934202D07B6834
:103D40001B6800E0284B7A681268934208D03B69F0
:103D5000002B05D03B69052B02D03B69092B14D100
:103D60007B681B68DB6803F00073002B07D07B685F
:103D70005B6D23F4405343F480527B685A657B6843
:103D80001B681846FFF7C2FD25E07B685B6D43F4B6
:103D900080127B685A657B681B68124A934202D086
:103DA0007B681B6800E0104BFB60FB68DB6803F07E
:103DB0000073002B0FD07B685B6D23F4405343F4FA
:103DC00080527B685A6506E07B68002283F85020A9
:103DD00001E00223FB75FB7D18461837BD4680BD08
:103DE00000030450000104500000045080B584B06A
:103DF00000AF78607B6893F85030012B01D102232B
:103E000023E07B68012283F850200321786800F0CA
:103E100061FC0346FB73FB7B002B11D1786800F03B
:103E200067FD0346FB73FB7B002B09D17B685B6D51
:103E300023F4885323F0010343F001027B685A65A1
:103E40007B68002283F85020FB7B18461037BD4664
:103E500080BD000080B588B000AF786039606248EE
:103E6000FFF79CFC78617B685B69082B02D1082313
:103E7000FB612AE07B69002B05D07B69052B02D012
:103E80007B69092B11D17B681B68DB6803F0010398
:103E9000002B07D07B685B6D43F020027B685A657E
:103EA00001239DE00423FB610FE04F48FFF784FCF2
:103EB0000346002B07D07B685B6D43F020027B68D4
:103EC0005A6501238CE00423FB61FFF751FB386145
:103ED0001AE03B68B3F1FF3F16D0FFF749FB0246FB
:103EE0003B69D31A3A689A4202D33B68002B0BD144
:103EF0007B685B6D43F004027B685A657B68002237
:103F000083F8502003236BE07B681B681A68FB6909
:103F10001340002BDDD07B685B6D43F400727B683F
:103F20005A657B681B681846FFF7B0FB0346002BF9
:103F30001CD07B685B7E002B18D17B681B681B68DC
:103F400003F00803082B11D17B685B6D23F48072AA
:103F50007B685A657B685B6D03F48053002B05D149
:103F60007B685B6D43F001027B685A657B681B6868
:103F70001E4A934202D07B681B6800E01C4B7A68A3
:103F80001268934208D07B69002B05D07B69052B12
:103F900002D07B69092B04D17B681B68DB68BB619D
:103FA0000CE07B681B68114A934202D07B681B6857
:103FB00000E00F4BFB60FB68DB68BB61FB69082B13
:103FC00004D17B681B6808221A6008E0BB6903F40F
:103FD0008043002B03D17B681B680C221A600023EE
:103FE00018462037BD4680BD000304500001045030
:103FF0000000045080B483B000AF78607B681B6819
:104000001B6C18460C37BD465DF8047B70470000FA
:1040100080B5A6B000AF78603960002387F897308C
:104020000023BB607B6893F85030012B01D1022341
:104030003AE37B68012283F850207B681B681846AE
:10404000FFF78CFC0346002B40F01B833B685B684A
:10405000052B24D83B685B68023B032B1BD801A2CD
:1040600052F823F0754000087D40000885400008A4
:104070008D4000083B680C225A6011E03B68122218
:104080005A600DE03B6818225A6009E03B684FF423
:1040900080725A6004E03B6806225A6000E000BF6C
:1040A0007B6818683B6859683B681B681A46FFF7CD
:1040B00000FB7B681B681846FFF750FCC7F89000B0
:1040C0007B681B681846FFF770FCC7F88C00D7F8B0
:1040D0009030002B40F04081D7F88C30002B40F01E
:1040E0003B817B6818683B6819683B689B681A4687
:1040F000FFF708FB3B685A697B681B68DB68DB08D5
:1041000003F003035B0002FA03F3C7F888303B684F
:104110001B69042B0AD07B6818683B6819693B68E7
:104120001A68D7F88830FFF763FA15E17B681B68D7
:1041300000211846FFF77EFA0346C3F31203002B53
:104140000AD17B681B6800211846FFF773FA034603
:104150009B0E03F01F0211E07B681B6800211846CC
:10416000FFF768FA0346C7F88030D7F8803093FA33
:10417000A3F3FB67FB6FB3FA83F31A463B681B6834
:10418000C3F31203002B05D13B681B689B0E03F0A1
:104190001F0309E03B681B68BB67BB6F93FAA3F37F
:1041A0007B677B6FB3FA83F39A4206D17B681B6807
:1041B000002200211846FFF751FA7B681B68012195
:1041C0001846FFF737FA0346C3F31203002B0AD150
:1041D0007B681B6801211846FFF72CFA03469B0EEB
:1041E00003F01F020FE07B681B6801211846FFF7F0
:1041F00021FA03463B673B6F93FAA3F3FB66FB6E22
:10420000B3FA83F31A463B681B68C3F31203002B0F
:1042100005D13B681B689B0E03F01F0309E03B6858
:104220001B68BB66BB6E93FAA3F37B667B6EB3FA27
:1042300083F39A4206D17B681B680022012118464D
:10424000FFF70CFA7B681B6802211846FFF7F2F9AA
:104250000346C3F31203002B0AD17B681B680221BB
:104260001846FFF7E7F903469B0E03F01F020FE025
:104270007B681B6802211846FFF7DCF903463B66A2
:104280003B6E93FAA3F3FB65FB6DB3FA83F31A4617
:104290003B681B68C3F31203002B05D13B681B6806
:1042A0009B0E03F01F0309E03B681B68BB65BB6DF9
:1042B00093FAA3F37B657B6DB3FA83F39A4206D13D
:1042C0007B681B68002202211846FFF7C7F97B684C
:1042D0001B6803211846FFF7ADF90346C3F3120329
:1042E000002B0AD17B681B6803211846FFF7A2F94F
:1042F00003469B0E03F01F020FE07B681B6803213F
:104300001846FFF797F903463B653B6D93FAA3F315
:10431000FB64FB6CB3FA83F31A463B681B68C3F378
:104320001203002B05D13B681B689B0E03F01F0393
:1043300009E03B681B68BB64BB6C93FAA3F37B6426
:104340007B6CB3FA83F39A4206D17B681B68002228
:1043500003211846FFF782F97B681B681846FFF7B0
:10436000AFFA0346002B40F005817B6818683B6874
:1043700019683B68DB681A46FFF7ECF93B68DB68B5
:10438000AA4A934240F0F6807B6818683B681B6835
:10439000C3F31203002B0BD13B681B689B0E013348
:1043A00003F01F03092B94BF01230023DBB211E0AC
:1043B0003B681B683B643B6C93FAA3F3FB63FB6BAA
:1043C000B3FA83F3013303F01F03092B94BF0123D6
:1043D0000023DBB2002B61D03B681B68C3F31203E0
:1043E000002B07D13B681B689B0E01339B0603F033
:1043F000F8420DE03B681B68BB63BB6B93FAA3F309
:104400007B637B6BB3FA83F301339B0603F0F842C3
:104410003B681B68C3F31203002B09D13B681B6880
:104420009B0E013303F01F03012101FA03F30FE098
:104430003B681B683B633B6B93FAA3F3FB62FB6A2D
:10444000B3FA83F3013303F01F03012101FA03F3ED
:1044500042EA03013B681B68C3F31203002B0AD135
:104460003B681B689B0E013303F01F0213465B0081
:1044700013441B0510E03B681B68BB62BB6A93FAE0
:10448000A3F37B627B6AB3FA83F3013303F01F0269
:1044900013465B0013441B050B4366E03B681B6837
:1044A000C3F31203002B07D13B681B689B0E01333B
:1044B0009B0603F0F8420DE03B681B683B623B6AD9
:1044C00093FAA3F3FB61FB69B3FA83F301339B0611
:1044D00003F0F8423B681B68C3F31203002B09D1B9
:1044E0003B681B689B0E013303F01F03012101FA97
:1044F00003F30FE03B681B68BB61BB6993FAA3F34E
:104500007B617B69B3FA83F3013303F01F0301215D
:1045100001FA03F342EA03013B681B68C3F3120389
:10452000002B0DD13B681B689B0E013303F01F026B
:1045300013465B0013441E3B1B0543F0007313E05E
:104540003B681B683B613B6993FAA3F3FB60FB6824
:10455000B3FA83F3013303F01F0213465B001344E5
:104560001E3B1B0543F000730B433A6892681946E3
:10457000FFF7C8F83B681A682D4B1340002B00F07A
:104580008D802C48FFF726F8C7F884003B681B682D
:10459000294A93422BD1D7F8843003F40003002B2F
:1045A00025D17B681B68254A934204D07B681B6831
:1045B000234A93426FD1D7F8843043F4000319465D
:1045C0001C48FEF7F4FF1F4B1B689B091E4AA2FB09
:1045D00003239A0913465B0013449B00BB6002E06F
:1045E000BB68013BBB60BB68002BF9D153E03B6863
:1045F0001B68164A93422BD1D7F8843003F080739E
:10460000002B25D17B681B680C4A934204D07B6841
:104610001B680B4A934240D1D7F8843043F0807333
:1046200019460448FEF7C3FF37E000BF00007F4093
:104630000000088000030450000052C7000004502E
:104640000002045084010020632D3E05000084CB4D
:104650003B681B68164A934220D1D7F8843003F494
:104660008003002B1AD17B681B68124A934215D134
:10467000D7F8843043F4800319460F48FEF797FFBC
:104680000CE07B685B6D43F020027B685A65012378
:1046900087F8973002E000BF00E000BF7B6800228F
:1046A00083F8502097F8973018469837BD4680BD5C
:1046B00001000080000004500003045080B483B067
:1046C00000AF78607B685B6D18460C37BD465DF8BF
:1046D000047B704780B588B000AF786039600023F4
:1046E000FB613B68BB617B681B681846FFF736F9C6
:1046F00038617B681B681846FFF757F9F8603B691B
:10470000002B03D1FB68002B00F090807B681B68B6
:10471000DB6803F00073002B2AD07B685B7E012BE3
:1047200026D17B681B7E012B22D10123BB6114E0C3
:10473000FB69414A93420DD97B685B6D43F01002DF
:104740007B685A657B689B6D43F001027B689A65C4
:1047500001236CE0FB690133FB617B681B681B680C
:1047600003F04003402BE3D17B681B6840221A60B2
:10477000BB69022B14D07B681B681846FFF7EEF864
:104780000346002B0CD07B681B681846FFF7ABF87C
:104790000346002B04D17B681B681846FFF7CAF854
:1047A000BB69012B14D07B681B681846FFF7FDF826
:1047B0000346002B0CD07B681B681846FFF793F864
:1047C0000346002B04D17B681B681846FFF7D9F815
:1047D000BB69022B04D0032B05D10C237B6105E0C0
:1047E00008237B6102E004237B6100BFFEF7C0FE6B
:1047F000B86014E0FEF7BCFE0246BB68D31A052B76
:104800000DD97B685B6D43F010027B685A657B684D
:104810009B6D43F001027B689A65012307E07B688A
:104820001B689A687B691340002BE3D1002318466C
:104830002037BD4680BD00BFFFFF3FA380B584B0D9
:1048400000AF78607B681B681846FFF739F80346AD
:10485000002B46D17B681B689A68244B1340002BC1
:104860000DD07B685B6D43F010027B685A657B68F6
:104870009B6D43F001027B689A65012332E07B68FF
:104880001B681846FEF7F4FFFEF772FEF86021E0A1
:104890007B681B681846FFF713F80346002B04D10A
:1048A0007B681B681846FEF7E3FFFEF761FE0246D1
:1048B000FB68D31A022B0DD97B685B6D43F01002A5
:1048C0007B685A657B689B6D43F001027B689A6543
:1048D000012307E07B681B681B6803F00103012BC1
:1048E000D6D1002318461037BD4680BD3F0000805A
:1048F00080B584B000AF78607B681B681846FEF70F
:10490000F2FFF8607B681B681846FEF7D9FF034684
:10491000002B40D0FB68002B3DD17B681B689B6857
:1049200003F00D03012B0CD17B681B681846FEF7C2
:10493000B3FF7B681B6803221A60FEF719FEB8609C
:1049400022E07B685B6D43F010027B685A657B68F0
:104950009B6D43F001027B689A6501231CE0FEF722
:1049600007FE0246BB68D31A022B0DD97B685B6D2C
:1049700043F010027B685A657B689B6D43F001022F
:104980007B689A65012307E07B681B689B6803F0DE
:104990000103002BE3D1002318461037BD4680BD2C
:1049A00080B483B000AF78607B689B6803F001033C
:1049B000012B01D1012300E0002318460C37BD462E
:1049C0005DF8047B704780B483B000AF78607B688B
:1049D0009B6803F00043B3F1004F01D1012300E0D5
:1049E000002318460C37BD465DF8047B704780B441
:1049F00083B000AF78607B689B6803F00403042BEE
:104A000001D1012300E0002318460C37BD465DF8B4
:104A1000047B704780B584B000AF786039600023B4
:104A2000BB607B6893F85030012B01D1022359E021
:104A30007B68012283F850207868FFF759FF03460E
:104A4000FB73FB7B002B42D17B685B6D23F48853A7
:104A500023F0020343F002027B685A657B681B68FF
:104A60009B6823F080417B681B683A680A439A6020
:104A70007B681B689A687B681B6842F000429A60FA
:104A800014E0BB680133BB60BB68B3F5912F0DD355
:104A90007B685B6D23F0120343F010027B685A655C
:104AA0007B68002283F8502001231BE07B681B6891
:104AB0001846FFF788FF0346002BE2D17B685B6D49
:104AC00023F0030343F001027B685A6505E07B682D
:104AD0005B6D43F010027B685A657B68002283F8A7
:104AE0005020FB7B18461037BD4680BD90B59FB067
:104AF00000AF78603960002387F877307B6893F8DF
:104B00005030012B01D102238FE07B68012283F812
:104B100050207B681B68474A934202D1464BBB60DA
:104B200001E00023BB60BB68002B0BD17B685B6D91
:104B300043F020027B685A657B68002283F850208E
:104B4000012372E0BB681846FFF751FF38677B68A6
:104B50001B681846FFF74BFF0346002B54D13B6FF1
:104B6000002B51D1354BFB663B681B68002B2CD0CA
:104B7000FB6E9B6823F460423B6859687B6893F83E
:104B800030305B030B431A43FB6E9A602948FFF7F2
:104B900007FF04462848FFF703FF03461C43284845
:104BA000FFF7FEFE03462343002B37D1FB6E9B68C5
:104BB00023F4716323F00F033A6811683A6892682E
:104BC0000A431A43FB6E9A6028E0FB6E9B6823F44D
:104BD0006042FB6E9A601748FFF7E2FE04461648F3
:104BE000FFF7DEFE03461C431548FFF7D9FE0346D8
:104BF0002343002B12D1FB6E9B6823F4716323F0D7
:104C00000F03FA6E936009E07B685B6D43F020024E
:104C10007B685A65012387F8773000E000BF7B6826
:104C2000002283F8502097F8773018467C37BD462D
:104C300090BD00BF00000450000104500003045068
:104C40000002045080B485B000AF78607B6803F048
:104C50000703FB600C4BDB68BB60BA684FF6FF03D1
:104C60001340BB60FB681A02BB68134343F0BF6389
:104C700043F40033BB60044ABB68D36000BF143701
:104C8000BD465DF8047B704700ED00E080B400AFE6
:104C9000044BDB681B0A03F007031846BD465DF8AA
:104CA000047B704700ED00E080B483B000AF0346A2
:104CB000FB71FB7903F01F02074997F907305B0985
:104CC000012000FA02F241F8232000BF0C37BD4654
:104CD0005DF8047B704700BF00E100E080B483B062
:104CE00000AF03463960FB7197F90730002B0BDAF0
:104CF0003B68DAB20C49FB7903F00F03043B120165
:104D0000D2B20B441A7609E03B68DAB2074997F948
:104D100007301201D2B20B4483F8002300BF0C37D6
:104D2000BD465DF8047B704700ED00E000E100E067
:104D300080B489B000AFF860B9607A60FB6803F0B6
:104D40000703FB61FB69C3F10703042B28BF04239E
:104D5000BB61FB690433062B02D9FB69033B00E00E
:104D600000237B614FF0FF32BB6902FA03F3DA43A1
:104D7000BB681A407B699A404FF0FF317B6901FAAA
:104D800003F3D9437B680B40134318462437BD46D1
:104D90005DF8047B704780B582B000AF78607868BA
:104DA000FFF750FF00BF0837BD4680BD80B586B015
:104DB00000AF0346B9607A60FB7300237B61FFF7A5
:104DC00065FF78617A68B9687869FFF7B1FF0246D4
:104DD00097F90F3011461846FFF780FF00BF1837CC
:104DE000BD4680BD80B582B000AF0346FB7197F928
:104DF00007301846FFF758FF00BF0837BD4680BD93
:104E000080B485B000AF78607B68002B01D10123AE
:104E100098E07B681B681A464D4B9A420FD87B6816
:104E20001B681A464B4B13444B4AA2FB03231B0936
:104E30009A007B685A647B68484A1A640EE07B6873
:104E40001B681A46464B1344434AA2FB03231B0923
:104E50009A007B685A647B68424A1A647B68022223
:104E600083F825207B681B681B68FB60FB6823F4C4
:104E7000FF4323F07003FB607B689A687B68DB6804
:104E80001A437B681B691A437B685B691A437B681A
:104E90009B691A437B68DB691A437B681B6A13436F
:104EA000FA681343FB607B681B68FA681A607B68CA
:104EB0009B68B3F5804F39D07B681B6C274A9342BF
:104EC0001AD1294B1A687B685B6C03F01C030F2115
:104ED00001FA03F3DB43244913400B60224B1A68A9
:104EE0007B6859687B685B6C03F01C0301FA03F371
:104EF0001D4913430B6019E01C4B1A687B685B6CFF
:104F000003F01C030F2101FA03F3DB43174913409D
:104F10000B60164B1A687B6859687B685B6C03F002
:104F20001C0301FA03F3114913430B607B68002251
:104F3000DA637B68012283F825207B68002283F8EE
:104F40002420002318461437BD465DF8047B7047C3
:104F500007040240F8FFFDBFCDCCCCCC00000240DE
:104F6000F8FBFDBF00040240A8000240A804024074
:104F700080B586B000AFF860B9607A603B6000230E
:104F8000FB75FB6893F82430012B01D102234BE021
:104F9000FB68012283F82420FB6893F82530DBB2FC
:104FA000012B3AD1FB68022283F82520FB680022FE
:104FB000DA63FB681B681A68FB681B6822F0010251
:104FC0001A603B687A68B968F86800F021F9FB68F4
:104FD0001B6B002B08D0FB681B681A68FB681B68FA
:104FE00042F00E021A600FE0FB681B681A68FB684B
:104FF0001B6822F004021A60FB681B681A68FB68D1
:105000001B6842F00A021A60FB681B681A68FB689A
:105010001B6842F001021A6005E0FB68002283F879
:1050200024200223FB75FB7D18461837BD4680BD42
:1050300080B584B000AF78600023FB737B6893F881
:105040002530DBB2022B05D07B680422DA63012312
:10505000FB7329E07B681B681A687B681B6822F079
:105060000E021A607B681B681A687B681B6822F056
:1050700001021A607B685B6C03F01C027B681B6C8E
:10508000012101FA02F25A607B68012283F825208F
:105090007B68002283F824207B689B6B002B03D065
:1050A0007B689B6B78689847FB7B18461037BD463A
:1050B00080BD80B584B000AF78607B681B6C1B68D6
:1050C000FB607B681B681B68BB607B685B6C03F0E4
:1050D0001C0304229A40FB681340002B26D0BB68B7
:1050E00003F00403002B21D07B681B681B6803F0CE
:1050F0002003002B07D17B681B681A687B681B683C
:1051000022F004021A607B685B6C03F01C027B686F
:105110001B6C042101FA02F25A607B681B6B002BA6
:1051200071D07B681B6B786898476CE07B685B6C20
:1051300003F01C0302229A40FB681340002B2ED080
:10514000BB6803F00203002B29D07B681B681B6837
:1051500003F02003002B0BD17B681B681A687B6867
:105160001B6822F00A021A607B68012283F825205E
:105170007B685B6C03F01C027B681B6C022101FAEC
:1051800002F25A607B68002283F824207B68DB6A85
:10519000002B38D07B68DB6A7868984733E07B68FF
:1051A0005B6C03F01C0308229A40FB681340002B41
:1051B0002AD0BB6803F00803002B25D07B681B684E
:1051C0001A687B681B6822F00E021A607B685B6CB1
:1051D00003F01C027B681B6C012101FA02F25A6089
:1051E0007B680122DA637B68012283F825207B68D3
:1051F000002283F824207B685B6B002B04D07B6843
:105200005B6B7868984700BF00BF1037BD4680BD14
:1052100080B485B000AFF860B9607A603B60FB682D
:105220005B6C03F01C02FB681B6C012101FA02F2AB
:105230005A60FB681B683A685A60FB689B68102BD1
:1052400008D1FB681B687A689A60FB681B68BA68BB
:10525000DA6007E0FB681B68BA689A60FB681B6845
:105260007A68DA6000BF1437BD465DF8047B70478A
:1052700080B487B000AF7860396000237B617FE144
:105280003B681A6801217B6901FA03F31340FB6054
:10529000FB68002B00F071813B685B68022B03D038
:1052A0003B685B68122B23D17B69DA087B68083284
:1052B00053F822303B617B6903F007039B000F2208
:1052C00002FA03F3DB433A6913403B613B681A6916
:1052D0007B6903F007039B0002FA03F33A69134367
:1052E0003B617B69DA087B680832396943F8221030
:1052F0007B681B683B617B695B00032202FA03F356
:10530000DB433A6913403B613B685B6803F003028F
:105310007B695B0002FA03F33A6913433B617B68E4
:105320003A691A603B685B68012B0BD03B685B688D
:10533000022B07D03B685B68112B03D03B685B688E
:10534000122B30D17B689B683B617B695B00032239
:1053500002FA03F3DB433A6913403B613B68DA68C6
:105360007B695B0002FA03F33A6913433B617B6894
:105370003A699A607B685B683B6101227B6902FA4B
:1053800003F3DB433A6913403B613B685B681B09ED
:1053900003F001027B6902FA03F33A6913433B61AC
:1053A0007B683A695A603B685B6803F00303032B30
:1053B00018D17B68DB6A3B6101227B6902FA03F347
:1053C000DB433A6913403B613B685B68DB0803F0F1
:1053D00001027B6902FA03F33A6913433B617B687C
:1053E0003A69DA627B68DB683B617B695B000322B8
:1053F00002FA03F3DB433A6913403B613B689A6866
:105400007B695B0002FA03F33A6913433B617B68F3
:105410003A69DA603B685B6803F08053002B00F068
:10542000AC805E4B1B6E5D4A43F0010313665B4B21
:105430001B6E03F00103BB60BB68594A7B699B0884
:10544000023352F823303B617B6903F003039B0076
:105450000F2202FA03F3DB433A6913403B617B6896
:10546000B3F1904F25D07B684E4A93421FD07B68A2
:105470004D4A934219D07B684C4A934213D07B68C3
:105480004B4A93420DD07B684A4A934207D07B68CF
:10549000494A934201D106230CE007230AE0052381
:1054A00008E0042306E0032304E0022302E00123D2
:1054B00000E000237A6902F00302920093403A6907
:1054C00013433B6136497B699B0802333A6941F8D3
:1054D00023203A4B1B683B61FB68DB433A6913406E
:1054E0003B613B685B6803F48033002B03D03A696F
:1054F000FB6813433B61314A3B6913602F4B5B6888
:105500003B61FB68DB433A6913403B613B685B6886
:1055100003F40033002B03D03A69FB6813433B616B
:10552000264A3B695360254B9B683B61FB68DB4324
:105530003A6913403B613B685B6803F48013002BBE
:1055400003D03A69FB6813433B611C4A3B69936093
:105550001A4BDB683B61FB68DB433A6913403B61F4
:105560003B685B6803F40013002B03D03A69FB68C7
:1055700013433B61114A3B69D3607B6901337B6113
:105580003B681A687B6922FA03F3002B7FF478AE3C
:1055900000BF1C37BD465DF8047B70470010024019
:1055A000000001400004004800080048000C0048CA
:1055B0000010004800140048001800480004014092
:1055C00080B483B000AF78600B467B8013467B705D
:1055D0007B78002B03D07A887B689A6102E07A8816
:1055E0007B689A6200BF0C37BD465DF8047B70474C
:1055F00080B582B000AF0346FB80084B5A69FB8838
:105600001340002B06D0054AFB885361FB881846DF
:1056100016F079FA00BF0837BD4680BD000401408E
:1056200080B582B000AF78607B68002B01D1012388
:1056300081E07B6893F84130DBB2002B06D17B68B8
:10564000002283F84020786814F088FF7B682422C9
:1056500083F841207B681B681A687B681B6822F00E
:1056600001021A607B685A687B681B6822F07062CE
:105670001A617B681B689A687B681B6822F4004289
:105680009A607B68DB68012B07D17B689A687B682E
:105690001B6842F400429A6006E07B689A687B6867
:1056A0001B6842F404429A607B68DB68022B04D1D9
:1056B0007B681B684FF400625A607B681B685B68FC
:1056C0007A68126843F0007343F4004353607B68C8
:1056D0001B68DA687B681B6822F40042DA607B682A
:1056E0001A697B685B6942EA03017B689B691A025D
:1056F0007B681B680A43DA607B68D9697B681A6A31
:105700007B681B680A431A607B681B681A687B68A1
:105710001B6842F001021A607B6800225A647B68B1
:10572000202283F841207B6800221A637B680022D4
:1057300083F84220002318460837BD4680BD00008C
:1057400080B588B002AFF860084611461A46034695
:105750007B810B463B811346FB80FB6893F841300D
:10576000DBB2202B40F0F9803B6A002B02D0BB8CCF
:10577000002B05D1FB684FF400725A640123EDE061
:10578000FB6893F84030012B01D10223E6E0FB686F
:10579000012283F84020FDF7EBFE78617B690093DE
:1057A000192301224FF40041F86800F0C3FA0346C0
:1057B000002B01D00123D1E0FB68212283F8412096
:1057C000FB68402283F84220FB6800225A64FB6891
:1057D0003A6A5A62FB68BA8C5A85FB6800225A639F
:1057E000F8883A8979897B690193BB6A00930346FB
:1057F000F86800F0D3F90346002B05D0FB680022BF
:1058000083F840200123A9E0FB685B8D9BB2FF2B4E
:105810000ED9FB68FF221A85FB681B8DDAB27989E5
:10582000002300934FF08073F86800F0A5FB0FE0B1
:10583000FB685B8D9AB2FB681A85FB681B8DDAB238
:105840007989002300934FF00073F86800F094FB0F
:105850007A69B96AF86800F0ADFA0346002B01D006
:1058600001237BE0FB685B6A1A78FB681B689A621D
:10587000FB685B6A5A1CFB685A62FB685B8D9BB2D3
:10588000013B9AB2FB685A85FB681B8D013B9AB2BB
:10589000FB681A85FB685B8D9BB2002B34D0FB68DC
:1058A0001B8D002B30D17B690093BB6A00228021C5
:1058B000F86800F03FFA0346002B01D001234DE0C9
:1058C000FB685B8D9BB2FF2B0ED9FB68FF221A850C
:1058D000FB681B8DDAB27989002300934FF0807347
:1058E000F86800F049FB0FE0FB685B8D9AB2FB683B
:1058F0001A85FB681B8DDAB27989002300934FF07B
:105900000073F86800F038FBFB685B8D9BB2002BDE
:105910009ED17A69B96AF86800F08CFA0346002BC8
:1059200001D001231AE0FB681B682022DA61FB68C2
:105930001B685968FB681A680A4B0B405360FB6888
:10594000202283F84120FB68002283F84220FB6874
:10595000002283F84020002300E002231846183775
:10596000BD4680BD00E800FE80B588B002AFF8609B
:10597000084611461A4603467B810B463B81134677
:10598000FB80FB6893F84130DBB2202B40F0FD80B8
:105990003B6A002B02D0BB8C002B05D1FB684FF477
:1059A00000725A640123F1E0FB6893F84030012B48
:1059B00001D10223EAE0FB68012283F84020FDF7D1
:1059C000D7FD78617B690093192301224FF40041D0
:1059D000F86800F0AFF90346002B01D00123D5E0B1
:1059E000FB68222283F84120FB68402283F8422092
:1059F000FB6800225A64FB683A6A5A62FB68BA8CF8
:105A00005A85FB6800225A63F8883A8979897B694C
:105A10000193BB6A00930346F86800F013F903464C
:105A2000002B05D0FB68002283F840200123ADE065
:105A3000FB685B8D9BB2FF2B0ED9FB68FF221A859A
:105A4000FB681B8DDAB27989524B00934FF080735B
:105A5000F86800F091FA0FE0FB685B8D9AB2FB6882
:105A60001A85FB681B8DDAB279894A4B00934FF097
:105A70000073F86800F080FA7B690093BB6A00222B
:105A80000421F86800F056F90346002B01D00123E9
:105A90007CE0FB681B685A6AFB685B6AD2B21A70CA
:105AA000FB685B6A5A1CFB685A62FB681B8D013BF2
:105AB0009AB2FB681A85FB685B8D9BB2013B9AB278
:105AC000FB685A85FB685B8D9BB2002B34D0FB686A
:105AD0001B8D002B30D17B690093BB6A0022802193
