:020000040800F2
:1000000000800120655800088956000897560008AE
:100010009D560008A3560008A956000800000000DD
:10002000000000000000000000000000AF560008C3
:10003000BD56000800000000CB560008D956000845
:10004000B5580008B5580008B5580008B55800085C
:10005000B5580008B5580008095700081757000898
:10006000255700083357000841570008B5580008C5
:10007000F1560008B5580008B5580008B5580008F2
:10008000B5580008B5580008B5580008B55800081C
:10009000B5580008B5580008B55800084F57000873
:1000A000B5580008B5580008B5580008B5580008FC
:1000B000B5580008B5580008B5580008B5580008EC
:1000C000B5580008B5580008B5580008B5580008DC
:1000D000B5580008B5580008B5580008E55600089E
:1000E00079570008FD560008B5580008B5580008B3
:1000F000B5580008B5580008B5580008B5580008AC
:10010000B5580008B5580008B5580008B55800089B
:10011000B5580008B5580008B5580008B55800088B
:10012000B5580008B5580008B5580008B55800087B
:10013000B5580008B5580008B5580008B55800086B
:10014000B5580008B5580008B5580008B55800085B
:10015000B5580008B5580008B5580008B55800084B
:10016000B5580008B5580008B5580008B55800083B
:10017000B5580008B5580008B55800080000000040
:08018000B5580008B55800084D
:1001900010B5054C237833B9044B13B10448AFF3C1
:1001A00000800123237010BDD80100200000000052
:1001B0009083000808B5034B1BB103490348AFF314
:1001C000008008BD00000000DC01002090830008D2
:1001D00081F0004102E000BF83F0004330B54FEAF8
:1001E00041044FEA430594EA050F08BF90EA020F65
:1001F0001FBF54EA000C55EA020C7FEA645C7FEAF8
:10020000655C00F0E2804FEA5454D4EB5555B8BF1A
:100210006D420CDD2C4480EA020281EA030382EA8B
:10022000000083EA010180EA020281EA0303362D1D
:1002300088BF30BD11F0004F4FEA01314FF4801CF0
:100240004CEA113102D0404261EB410113F0004F02
:100250004FEA03334CEA133302D0524263EB4303B9
:1002600094EA050F00F0A780A4F10104D5F1200E57
:100270000DDB02FA0EFC22FA05F2801841F10001B2
:1002800003FA0EF2801843FA05F359410EE0A5F186
:1002900020050EF1200E012A03FA0EFC28BF4CF0B7
:1002A000020C43FA05F3C01851EBE37101F000456D
:1002B00007D54FF0000EDCF1000C7EEB00006EEB7A
:1002C0000101B1F5801F1BD3B1F5001F0CD3490804
:1002D0005FEA30004FEA3C0C04F101044FEA44525B
:1002E00012F5800F80F09A80BCF1004F08BF5FEAE2
:1002F000500C50F1000041EB045141EA050130BDC2
:100300005FEA4C0C404141EB010111F4801FA4F164
:100310000104E9D191F0000F04BF01460020B1FAB9
:1003200081F308BF2033A3F10B03B3F120020CDAF1
:100330000C3208DD02F1140CC2F10C0201FA0CF0CF
:1003400021FA02F10CE002F11402D8BFC2F1200C34
:1003500001FA02F120FA0CFCDCBF41EA0C019040EA
:10036000E41AA2BF01EB0451294330BD6FEA040433
:100370001F3C1CDA0C340EDC04F11404C4F120021E
:1003800020FA04F001FA02F340EA030021FA04F330
:1003900045EA030130BDC4F10C04C4F1200220FA87
:1003A00002F001FA04F340EA0300294630BD21FAC5
:1003B00004F0294630BD94F0000F83F4801306BF8B
:1003C00081F480110134013D4EE77FEA645C18BF7F
:1003D0007FEA655C29D094EA050F08BF90EA020F16
:1003E00005D054EA000C04BF1946104630BD91EA0E
:1003F000030F1EBF0021002030BD5FEA545C05D111
:100400004000494128BF41F0004130BD14F580044F
:100410003CBF01F5801130BD01F0004545F0FE41C3
:1004200041F470014FF0000030BD7FEA645C1ABFF8
:10043000194610467FEA655C1CBF0B46024650EA2F
:10044000013406BF52EA033591EA030F41F400215B
:1004500030BD00BF90F0000F04BF0021704730B5E1
:100460004FF4806404F132044FF000054FF00001B6
:1004700050E700BF90F0000F04BF0021704730B577
:100480004FF4806404F1320410F0004548BF40424C
:100490004FF000013EE700BF42004FEAE2014FEAA1
:1004A00031014FEA02701FBF12F07F4393F07F4F7C
:1004B00081F06051704732F07F4208BF704793F07F
:1004C0007F4F04BF41F40021704730B54FF4607492
:1004D00001F0004521F000411CE700BF50EA010295
:1004E00008BF704730B54FF000050AE050EA01023E
:1004F00008BF704730B511F0004502D5404261EBAE
:1005000041014FF4806404F132045FEA915C3FF4EE
:10051000D8AE4FF003025FEADC0C18BF03325FEA8B
:10052000DC0C18BF033202EBDC02C2F1200300FA3C
:1005300003FC20FA02F001FA03FE40EA0E0021FA61
:1005400002F11444BDE600BF70B54FF0FF0C4CF44F
:10055000E06C1CEA11541DBF1CEA135594EA0C0F01
:1005600095EA0C0F00F0DEF82C4481EA030621EA3C
:100570004C5123EA4C5350EA013518BF52EA033577
:1005800041F4801143F4801338D0A0FB02CE4FF029
:100590000005E1FB02E506F00042E0FB03E54FF059
:1005A0000006E1FB03569CF0000F18BF4EF0010E51
:1005B000A4F1FF04B6F5007F64F5407404D25FEA4D
:1005C0004E0E6D4146EB060642EAC62141EA555100
:1005D0004FEAC52040EA5E504FEACE2EB4F1FD0C42
:1005E00088BFBCF5E06F1ED8BEF1004F08BF5FEAC0
:1005F000500E50F1000041EB045170BD06F0004672
:1006000046EA010140EA020081EA0301B4EB5C041E
:10061000C2BFD4EB0C0541EA045170BD41F4801116
:100620004FF0000E013C00F3AB8014F1360FDEBF3B
:10063000002001F0004170BDC4F10004203C35DA17
:100640000C341BDC04F11404C4F1200500FA05F39A
:1006500020FA04F001FA05F240EA020001F000423B
:1006600021F0004110EBD37021FA04F642EB0601B1
:100670005EEA430E08BF20EAD37070BDC4F10C04DB
:10068000C4F1200500FA04F320FA05F001FA04F29F
:1006900040EA020001F0004110EBD37041F100018B
:1006A0005EEA430E08BF20EAD37070BDC4F1200596
:1006B00000FA05F24EEA020E20FA04F301FA05F2FE
:1006C00043EA020321FA04F001F0004121FA04F2A6
:1006D00020EA020000EBD3705EEA430E08BF20EA76
:1006E000D37070BD94F0000F0FD101F000464000B0
:1006F00041EB010111F4801F08BF013CF7D041EA32
:10070000060195F0000F18BF704703F00046520035
:1007100043EB030313F4801F08BF013DF7D043EA06
:100720000603704794EA0C0F0CEA135518BF95EABC
:100730000C0F0CD050EA410618BF52EA4306D1D143
:1007400081EA030101F000414FF0000070BD50EA62
:10075000410606BF1046194652EA430619D094EAEC
:100760000C0F02D150EA013613D195EA0C0F05D1D6
:1007700052EA03361CBF104619460AD181EA03012A
:1007800001F0004141F0FE4141F470014FF00000E2
:1007900070BD41F0FE4141F4780170BD70B54FF07D
:1007A000FF0C4CF4E06C1CEA11541DBF1CEA1355FD
:1007B00094EA0C0F95EA0C0F00F0A7F8A4EB0504DF
:1007C00081EA030E52EA03354FEA013100F08880D6
:1007D0004FEA03334FF0805545EA131343EA12639F
:1007E0004FEA022245EA111545EA10654FEA002654
:1007F0000EF000419D4208BF964244F1FD0404F50D
:10080000407402D25B084FEA3202B61A65EB030568
:100810005B084FEA32024FF480104FF4002CB6EB25
:10082000020E75EB030E22BFB61A754640EA0C00A5
:100830005B084FEA3202B6EB020E75EB030E22BFE5
:10084000B61A754640EA5C005B084FEA3202B6EB26
:10085000020E75EB030E22BFB61A754640EA9C00E5
:100860005B084FEA3202B6EB020E75EB030E22BFB5
:10087000B61A754640EADC0055EA060E18D04FEA73
:10088000051545EA16754FEA06164FEAC30343EA13
:1008900052734FEAC2025FEA1C1CC0D111F4801FE0
:1008A0000BD141EA00014FF000004FF0004CB6E7D9
:1008B00011F4801F04BF01430020B4F1FD0C88BF78
:1008C000BCF5E06F3FF6AFAEB5EB030C04BFB6EB83
:1008D000020C5FEA500C50F1000041EB045170BD76
:1008E0000EF0004E4EEA113114EB5C04C2BFD4EBA3
:1008F0000C0541EA045170BD41F480114FF0000E27
:10090000013C90E645EA060E8DE60CEA135594EAA2
:100910000C0F08BF95EA0C0F3FF43BAF94EA0C0FA5
:100920000AD150EA01347FF434AF95EA0C0F7FF41A
:1009300025AF104619462CE795EA0C0F06D152EA6E
:1009400003353FF4FDAE1046194622E750EA410652
:1009500018BF52EA43067FF4C5AE50EA41047FF463
:100960000DAF52EA43057FF4EBAE12E74FF0FF3CC8
:1009700006E000BF4FF0010C02E000BF4FF0010C99
:100980004DF804CD4FEA410C7FEA6C5C4FEA430C12
:1009900018BF7FEA6C5C1BD001B050EA410C0CBF61
:1009A00052EA430C91EA030F02BF90EA020F0020C3
:1009B000704710F1000F91EA030F58BF994208BF2A
:1009C00090422CBFD8176FEAE37040F001007047E7
:1009D0004FEA410C7FEA6C5C02D150EA013C07D13E
:1009E0004FEA430C7FEA6C5CD6D152EA033CD3D089
:1009F0005DF8040B704700BF8446104662468C4683
:100A00001946634600E000BF01B5FFF7B7FF0028B5
:100A100048BF10F1000F01BD4DF808EDFFF7F4FFDE
:100A20000CBF012000205DF808FB00BF4DF808ED69
:100A3000FFF7EAFF34BF012000205DF808FB00BF8C
:100A40004DF808EDFFF7E0FF94BF012000205DF8AE
:100A500008FB00BF4DF808EDFFF7CEFF94BF012063
:100A600000205DF808FB00BF4DF808EDFFF7C4FF5C
:100A700034BF012000205DF808FB00BF4FEA4102AF
:100A800012F5001215D211D56FF47873B3EB6252E0
:100A900012D94FEAC12343F0004343EA505311F007
:100AA000004F23FA02F018BF404270474FF0000099
:100AB000704750EA013005D111F0004008BF6FF0D7
:100AC000004070474FF00000704700BF4FEA4102FE
:100AD000B2F1E04324BFB3F5001CDCF1FE5C0DD99C
:100AE00001F0004C4FEAC0024CEA5070B2F1004FE6
:100AF00040EB830008BF20F00100704711F0804FE9
:100B000021D113F13872BCBF01F00040704741F4AD
:100B100080114FEA5252C2F11802C2F1200C10FAB1
:100B20000CF320FA02F018BF40F001004FEAC12395
:100B30004FEAD32303FA0CFC40EA0C0023FA02F339
:100B40004FEA4303CCE77FEA625307D150EA01330F
:100B50001EBF4FF0FE4040F44000704701F00040DF
:100B600040F0FE4040F40000704700BF034613F819
:100B7000012B002AFBD1181A013870470000000031
:100B800001F0FF01102A2BDB10F0070F08D010F83E
:100B9000013B013A8B422DD010F0070F42B3F6D142
:100BA000F0B441EA012141EA014122F007047FF05B
:100BB00000070023F0E80256083C85EA010586EAB2
:100BC000010685FA47F5A3FA87F586FA47F6A5FAEE
:100BD00087F68EB9EED1F0BC01F0FF0102F00702FA
:100BE00032B110F8013B013A83EA010313B1F8D1A5
:100BF0000020704701387047002D06BF3546033886
:100C0000073815F0010F07D1013015F4807F02BFBE
:100C1000013015F4C03F0130F0BC0138704700BF0F
:100C20004FEA410C7FEA6C5C02D150EA013C0AD1E8
:100C30004FEA430C7FEA6C5C02D152EA033C02D1DA
:100C40004FF0000070474FF00100704780B582B050
:100C500000AF0023FB71032000F088FC002004F0AB
:100C6000FFFB0346002B02D00123FB7101E004F0DF
:100C7000CDFBFB7918460837BD4680BD80B400AF78
:100C8000044B1B680133034A136000BFBD465DF887
:100C9000047B70479804002080B400AF034B1B68AE
:100CA0001846BD465DF8047B704700BF98040020DD
:100CB00080B584B000AF7860FFF7EEFFB8607B6866
:100CC000FB60FB68B3F1FF3F02D0FB680133FB60C0
:100CD00000BFFFF7E1FF0246BB68D31AFA689A42E9
:100CE000F7D800BF1037BD4680BD80B483B000AFD9
:100CF00078607B68DB6803F44063002B01D101233B
:100D000000E0002318460C37BD465DF8047B7047B1
:100D100080B483B000AF78607B689B6803F01F03EA
:100D200018460C37BD465DF8047B704780B483B02D
:100D300000AF78607B689B6803F4604318460C370B
:100D4000BD465DF8047B704780B483B000AF786027
:100D50007B689B6823F0004323F03F0343F00102CC
:100D60007B689A6000BF0C37BD465DF8047B704716
:100D700080B483B000AF78607B689B6823F0004349
:100D800023F03F0343F002027B689A6000BF0C37F8
:100D9000BD465DF8047B704780B483B000AF7860D7
:100DA0007B689B6803F00103012B01D1012300E064
:100DB000002318460C37BD465DF8047B704780B4AD
:100DC00083B000AF78607B689B6803F00203022B5E
:100DD00001D1012300E0002318460C37BD465DF821
:100DE000047B704780B483B000AF78607B689B68F9
:100DF00023F0004323F03F0343F004027B689A6032
:100E000000BF0C37BD465DF8047B704780B483B0EB
:100E100000AF78607B689B6823F0004323F03F03BA
:100E200043F010027B689A6000BF0C37BD465DF846
:100E3000047B704780B483B000AF78607B689B68A8
:100E400003F00403042B01D1012300E00023184622
:100E50000C37BD465DF8047B704780B483B000AFAB
:100E600078607B689B6823F0004323F03F0343F0E6
:100E700020027B689A6000BF0C37BD465DF8047B9A
:100E8000704780B483B000AF78607B689B6803F0E4
:100E90000803082B01D1012300E0002318460C377A
:100EA000BD465DF8047B704780B586B000AF7860C2
:100EB0005748FFF72DFF38617B681B681846FFF71E
:100EC000B9FF0346002B40F09C807B6893F85030BC
:100ED000012B01D1022397E07B68012283F8502087
:100EE000786800F06DFA0346FB75FB7D002B40F03F
:100EF00083807B685B6D23F4706323F0010343F40C
:100F000080727B685A657B681B68424A934202D0B4
:100F10007B681B6800E0404B7A681268934202D0FD
:100F20003B69002B05D17B685B6D23F480127B68E5
:100F30005A657B685B6D03F48053B3F5805F06D11F
:100F40007B689B6D23F006027B689A6502E07B68F4
:100F500000229A657B681B681C221A607B6800224D
:100F600083F850207B681B682A4A934202D07B6832
:100F70001B6800E0284B7A681268934208D03B69EE
:100F8000002B05D03B69052B02D03B69092B14D1FE
:100F90007B681B68DB6803F00073002B07D07B685D
:100FA0005B6D23F4405343F480527B685A657B6841
:100FB0001B681846FFF716FF25E07B685B6D43F45E
:100FC00080127B685A657B681B68124A934202D084
:100FD0007B681B6800E0104BFB60FB68DB6803F07C
:100FE0000073002B0FD07B685B6D23F4405343F4F8
:100FF00080527B685A6506E07B68002283F85020A7
:1010000001E00223FB75FB7D18461837BD4680BD05
:1010100000030450000104500000045080B584B067
:1010200000AF78607B6893F85030012B01D1022328
:1010300023E07B68012283F850200321786800F0C8
:101040000BF90346FB73FB7B002B11D1786800F092
:1010500011FA0346FB73FB7B002B09D17B685B6DA8
:1010600023F4885323F0010343F001027B685A659F
:101070007B68002283F85020FB7B18461037BD4662
:1010800080BD000080B588B000AF786039606248EC
:10109000FFF73EFE78617B685B69082B02D108236D
:1010A000FB612AE07B69002B05D07B69052B02D010
:1010B0007B69092B11D17B681B68DB6803F0010396
:1010C000002B07D07B685B6D43F020027B685A657C
:1010D00001239DE00423FB610FE04F48FFF726FE4C
:1010E0000346002B07D07B685B6D43F020027B68D2
:1010F0005A6501238CE00423FB61FFF7CDFD3861C5
:101100001AE03B68B3F1FF3F16D0FFF7C5FD02467A
:101110003B69D31A3A689A4202D33B68002B0BD141
:101120007B685B6D43F004027B685A657B68002234
:1011300083F8502003236BE07B681B681A68FB6907
:101140001340002BDDD07B685B6D43F400727B683D
:101150005A657B681B681846FFF7C7FD0346002BDE
:101160001CD07B685B7E002B18D17B681B681B68DA
:1011700003F00803082B11D17B685B6D23F48072A8
:101180007B685A657B685B6D03F48053002B05D147
:101190007B685B6D43F001027B685A657B681B6866
:1011A0001E4A934202D07B681B6800E01C4B7A68A1
:1011B0001268934208D07B69002B05D07B69052B10
:1011C00002D07B69092B04D17B681B68DB68BB619B
:1011D0000CE07B681B68114A934202D07B681B6855
:1011E00000E00F4BFB60FB68DB68BB61FB69082B11
:1011F00004D17B681B6808221A6008E0BB6903F40D
:101200008043002B03D17B681B680C221A600023EB
:1012100018462037BD4680BD00030450000104502D
:101220000000045080B483B000AF78607B681B6816
:101230001B6C18460C37BD465DF8047B704780B4C4
:1012400083B000AF78607B685B6D18460C37BD4695
:101250005DF8047B7047000080B588B000AF78600F
:1012600039600023FB613B68BB617B681B681846E3
:10127000FFF7E0FD38617B681B681846FFF701FE49
:10128000F8603B69002B03D1FB68002B00F09080D5
:101290007B681B68DB6803F00073002B2AD07B6837
:1012A0005B7E012B26D17B681B7E012B22D1012383
:1012B000BB6114E0FB69414A93420DD97B685B6DC9
:1012C00043F010027B685A657B689B6D43F0010216
:1012D0007B689A6501236CE0FB690133FB617B68E5
:1012E0001B681B6803F04003402BE3D17B681B683D
:1012F00040221A60BB69022B14D07B681B68184619
:10130000FFF798FD0346002B0CD07B681B6818463E
:10131000FFF755FD0346002B04D17B681B68184678
:10132000FFF774FDBB69012B14D07B681B6818465E
:10133000FFF7A7FD0346002B0CD07B681B681846FF
:10134000FFF73DFD0346002B04D17B681B68184660
:10135000FFF783FDBB69022B04D0032B05D10C23BF
:101360007B6105E008237B6102E004237B6100BF11
:10137000FFF792FCB86014E0FFF78EFC0246BB68F2
:10138000D31A052B0DD97B685B6D43F010027B6887
:101390005A657B689B6D43F001027B689A65012367
:1013A00007E07B681B689A687B691340002BE3D1D8
:1013B000002318462037BD4680BD00BFFFFF3FA376
:1013C00080B584B000AF78607B681B681846FFF773
:1013D000E3FC0346002B46D17B681B689A68244BCC
:1013E0001340002B0DD07B685B6D43F010027B68CF
:1013F0005A657B689B6D43F001027B689A65012307
:1014000032E07B681B681846FFF79EFCFFF744FC40
:10141000F86021E07B681B681846FFF7BDFC0346B7
:10142000002B04D17B681B681846FFF78DFCFFF783
:1014300033FC0246FB68D31A022B0DD97B685B6D27
:1014400043F010027B685A657B689B6D43F0010294
:101450007B689A65012307E07B681B681B6803F0C3
:101460000103012BD6D1002318461037BD4680BD9D
:101470003F00008080B584B000AF78607B681B6857
:101480001846FFF79CFCF8607B681B681846FFF75E
:1014900083FC0346002B40D0FB68002B3DD17B68CA
:1014A0001B689B6803F00D03012B0CD17B681B6844
:1014B0001846FFF75DFC7B681B6803221A60FFF784
:1014C000EBFBB86022E07B685B6D43F010027B6849
:1014D0005A657B689B6D43F001027B689A65012326
:1014E0001CE0FFF7D9FB0246BB68D31A022B0DD9CB
:1014F0007B685B6D43F010027B685A657B689B6D6F
:1015000043F001027B689A65012307E07B681B6852
:101510009B6803F00103002BE3D10023184610372A
:10152000BD4680BD80B485B000AF78607B6803F0B5
:101530000703FB600C4BDB68BB60BA684FF6FF0328
:101540001340BB60FB681A02BB68134343F0BF63E0
:1015500043F40033BB60044ABB68D36000BF143758
:10156000BD465DF8047B704700ED00E080B582B0B9
:1015700000AF78607868FFF7D5FF00BF0837BD4639
:1015800080BD80B584B000AF78600023FB737B68BA
:1015900093F82530DBB2022B05D07B680422DA6396
:1015A0000123FB7329E07B681B681A687B681B6852
:1015B00022F00E021A607B681B681A687B681B6841
:1015C00022F001021A607B685B6C03F01C027B68EE
:1015D0001B6C012101FA02F25A607B68012283F838
:1015E00025207B68002283F824207B689B6B002BDE
:1015F00003D07B689B6B78689847FB7B1846103755
:10160000BD4680BD80B584B000AF78607B681B6C40
:101610001B68FB607B681B681B68BB607B685B6C3E
:1016200003F01C0304229A40FB681340002B26D0D1
:10163000BB6803F00403002B21D07B681B681B6888
:1016400003F02003002B07D17B681B681A687B68B6
:101650001B6822F004021A607B685B6C03F01C02BA
:101660007B681B6C042101FA02F25A607B681B6BD9
:10167000002B71D07B681B6B786898476CE07B68A7
:101680005B6C03F01C0302229A40FB681340002BA2
:101690002ED0BB6803F00203002B29D07B681B68A7
:1016A0001B6803F02003002B0BD17B681B681A68B2
:1016B0007B681B6822F00A021A607B68012283F8AB
:1016C00025207B685B6C03F01C027B681B6C02218D
:1016D00001FA02F25A607B68002283F824207B68BA
:1016E000DB6A002B38D07B68DB6A7868984733E088
:1016F0007B685B6C03F01C0308229A40FB68134074
:10170000002B2AD0BB6803F00803002B25D07B6890
:101710001B681A687B681B6822F00E021A607B68DF
:101720005B6C03F01C027B681B6C012101FA02F266
:101730005A607B680122DA637B68012283F82520E6
:101740007B68002283F824207B685B6B002B04D02D
:101750007B685B6B7868984700BF00BF1037BD4659
:1017600080BD000080B487B000AF7860396000238E
:101770007B617FE13B681A6801217B6901FA03F311
:101780001340FB60FB68002B00F071813B685B68D5
:10179000022B03D03B685B68122B23D17B69DA08EC
:1017A0007B68083253F822303B617B6903F0070302
:1017B0009B000F2202FA03F3DB433A6913403B61BB
:1017C0003B681A697B6903F007039B0002FA03F385
:1017D0003A6913433B617B69DA087B6808323969EF
:1017E00043F822107B681B683B617B695B00032226
:1017F00002FA03F3DB433A6913403B613B685B68E1
:1018000003F003027B695B0002FA03F33A691343B6
:101810003B617B683A691A603B685B68012B0BD0BF
:101820003B685B68022B07D03B685B68112B03D0D9
:101830003B685B68122B30D17B689B683B617B699E
:101840005B00032202FA03F3DB433A6913403B6176
:101850003B68DA687B695B0002FA03F33A69134379
:101860003B617B683A699A607B685B683B610122F7
:101870007B6902FA03F3DB433A6913403B613B683F
:101880005B681B0903F001027B6902FA03F33A6902
:1018900013433B617B683A695A603B685B6803F0BD
:1018A0000303032B18D17B68DB6A3B6101227B6950
:1018B00002FA03F3DB433A6913403B613B685B6820
:1018C000DB0803F001027B6902FA03F33A69134370
:1018D0003B617B683A69DA627B68DB683B617B6904
:1018E0005B00032202FA03F3DB433A6913403B61D6
:1018F0003B689A687B695B0002FA03F33A69134319
:101900003B617B683A69DA603B685B6803F080534F
:10191000002B00F0AC805E4B1B6E5D4A43F0010370
:1019200013665B4B1B6E03F00103BB60BB68594A37
:101930007B699B08023352F823303B617B6903F0DB
:1019400003039B000F2202FA03F3DB433A691340BF
:101950003B617B68B3F1904F25D07B684E4A934240
:101960001FD07B684D4A934219D07B684C4A934202
:1019700013D07B684B4A93420DD07B684A4A93420E
:1019800007D07B68494A934201D106230CE0072324
:101990000AE0052308E0042306E0032304E0022311
:1019A00002E0012300E000237A6902F003029200C2
:1019B00093403A6913433B6136497B699B08023384
:1019C0003A6941F823203A4B1B683B61FB68DB43D3
:1019D0003A6913403B613B685B6803F48033002B3A
:1019E00003D03A69FB6813433B61314A3B6913609A
:1019F0002F4B5B683B61FB68DB433A6913403B61FB
:101A00003B685B6803F40033002B03D03A69FB6842
:101A100013433B61264A3B695360254B9B683B61FE
:101A2000FB68DB433A6913403B613B685B6803F446
:101A30008013002B03D03A69FB6813433B611C4AB7
:101A40003B6993601A4BDB683B61FB68DB433A6997
:101A500013403B613B685B6803F40013002B03D029
:101A60003A69FB6813433B61114A3B69D3607B6968
:101A700001337B613B681A687B6922FA03F3002B10
:101A80007FF478AE00BF1C37BD465DF8047B70471D
:101A90000010024000000140000400480008004817
:101AA000000C0048001000480014004800180048CE
:101AB0000004014080B483B000AF78600B467B80A7
:101AC00013467B707B78002B03D07A887B689A6101
:101AD00002E07A887B689A6200BF0C37BD465DF8E9
:101AE000047B704780B483B000AF78600B467B8086
:101AF0007B685A697B885A407B685A6100BF0C3703
:101B0000BD465DF8047B704780B582B000AF0346E8
:101B1000FB80084B5A69FB881340002B06D0054A0E
:101B2000FB885361FB88184603F0A5FC00BF08370B
:101B3000BD4680BD0004014080B588B002AFF860AA
:101B4000084611461A4603467B810B463B811346E5
:101B5000FB80FB6893F84130DBB2202B40F0F9802A
:101B60003B6A002B02D0BB8C002B05D1FB684FF4E5
:101B700000725A640123EDE0FB6893F84030012BBA
:101B800001D10223E6E0FB68012283F84020FFF741
:101B900083F878617B690093192301224FF4004197
:101BA000F86800F0C3FA0346002B01D00123D1E00E
:101BB000FB68212283F84120FB68402283F8422001
:101BC000FB6800225A64FB683A6A5A62FB68BA8C66
:101BD0005A85FB6800225A63F8883A8979897B69BB
:101BE0000193BB6A00930346F86800F0D3F90346FB
:101BF000002B05D0FB68002283F840200123A9E0D8
:101C0000FB685B8D9BB2FF2B0ED9FB68FF221A8508
:101C1000FB681B8DDAB27989002300934FF0807343
:101C2000F86800F0A5FB0FE0FB685B8D9AB2FB68DB
:101C30001A85FB681B8DDAB27989002300934FF077
:101C40000073F86800F094FB7A69B96AF86800F0EC
:101C5000ADFA0346002B01D001237BE0FB685B6AF1
:101C60001A78FB681B689A62FB685B6A5A1CFB68FF
:101C70005A62FB685B8D9BB2013B9AB2FB685A8546
:101C8000FB681B8D013B9AB2FB681A85FB685B8D74
:101C90009BB2002B34D0FB681B8D002B30D17B69AD
:101CA0000093BB6A00228021F86800F03FFA0346E7
:101CB000002B01D001234DE0FB685B8D9BB2FF2B15
:101CC0000ED9FB68FF221A85FB681B8DDAB2798971
:101CD000002300934FF08073F86800F049FB0FE099
:101CE000FB685B8D9AB2FB681A85FB681B8DDAB2C4
:101CF0007989002300934FF00073F86800F038FBF7
:101D0000FB685B8D9BB2002B9ED17A69B96AF8683B
:101D100000F08CFA0346002B01D001231AE0FB6887
:101D20001B682022DA61FB681B685968FB681A6827
:101D30000A4B0B405360FB68202283F84120FB686C
:101D4000002283F84220FB68002283F84020002311
:101D500000E0022318461837BD4680BD00E800FEAB
:101D600080B588B002AFF860084611461A460346AF
:101D70007B810B463B811346FB80FB6893F8413027
:101D8000DBB2202B40F0FD803B6A002B02D0BB8CE5
:101D9000002B05D1FB684FF400725A640123F1E077
:101DA000FB6893F84030012B01D10223EAE0FB6885
:101DB000012283F84020FEF76FFF78617B69009372
:101DC000192301224FF40041F86800F0AFF90346EF
:101DD000002B01D00123D5E0FB68222283F84120AB
:101DE000FB68402283F84220FB6800225A64FB68AB
:101DF0003A6A5A62FB68BA8C5A85FB6800225A63B9
:101E0000F8883A8979897B690193BB6A0093034614
:101E1000F86800F013F90346002B05D0FB68002298
:101E200083F840200123ADE0FB685B8D9BB2FF2B64
:101E30000ED9FB68FF221A85FB681B8DDAB27989FF
:101E4000524B00934FF08073F86800F091FA0FE066
:101E5000FB685B8D9AB2FB681A85FB681B8DDAB252
:101E600079894A4B00934FF00073F86800F080FACC
:101E70007B690093BB6A00220421F86800F056F9E0
:101E80000346002B01D001237CE0FB681B685A6AE3
:101E9000FB685B6AD2B21A70FB685B6A5A1CFB680B
:101EA0005A62FB681B8D013B9AB2FB681A85FB687E
:101EB0005B8D9BB2013B9AB2FB685A85FB685B8DD8
:101EC0009BB2002B34D0FB681B8D002B30D17B697B
:101ED0000093BB6A00228021F86800F027F90346CE
:101EE000002B01D001234DE0FB685B8D9BB2FF2BE3
:101EF0000ED9FB68FF221A85FB681B8DDAB279893F
:101F0000002300934FF08073F86800F031FA0FE07F
:101F1000FB685B8D9AB2FB681A85FB681B8DDAB291
:101F20007989002300934FF00073F86800F020FADD
:101F3000FB685B8D9BB2002B9AD17A69B96AF8680D
:101F400000F074F90346002B01D001231AE0FB686E
:101F50001B682022DA61FB681B685968FB681A68F5
:101F60000B4B0B405360FB68202283F84120FB6839
:101F7000002283F84220FB68002283F840200023DF
:101F800000E0022318461837BD4680BD00240080BB
:101F900000E800FE80B586B002AFF8600846114642
:101FA0001A4603467B810B463B811346FB80FB8828
:101FB000DAB27989204B00934FF08073F86800F013
:101FC000D7F9FA69B969F86800F0F0F80346002B10
:101FD00001D001232CE0FB88012B05D13B89DAB22B
:101FE000FB681B689A6215E03B891B0A9BB2DAB258
:101FF000FB681B689A62FA69B969F86800F0D6F85C
:102000000346002B01D0012312E03B89DAB2FB68C2
:102010001B689A62FB690093BB6900228021F86803
:1020200000F084F80346002B01D0012300E00023D8
:1020300018461037BD4680BD0020008080B586B0B0
:1020400002AFF860084611461A4603467B810B46EC
:102050003B811346FB80FB88DAB27989204B0093E1
:102060000023F86800F084F9FA69B969F86800F0AB
:102070009DF80346002B01D001232CE0FB88012BA7
:1020800005D13B89DAB2FB681B689A6215E03B898F
:102090001B0A9BB2DAB2FB681B689A62FA69B969DB
:1020A000F86800F083F80346002B01D0012312E00A
:1020B0003B89DAB2FB681B689A62FB690093BB69D3
:1020C00000224021F86800F031F80346002B01D0CF
:1020D000012300E0002318461037BD4680BD00BF35
:1020E0000020008080B483B000AF78607B681B68FC
:1020F0009B6903F00203022B03D17B681B6800225B
:102100009A627B681B689B6903F00103012B07D06F
:102110007B681B689A697B681B6842F001029A61C0
:1021200000BF0C37BD465DF8047B704780B584B0B6
:1021300000AFF860B9603B601346FB7122E03B687A
:10214000B3F1FF3F1ED0FEF7A7FD0246BB69D31ACD
:102150003A689A4202D33B68002B13D1FB685B6C50
:1021600043F02002FB685A64FB68202283F8412078
:10217000FB68002283F84220FB68002283F840209D
:1021800001230FE0FB681B689A69BB681340BA68BB
:102190009A420CBF01230023DBB21A46FB799A4214
:1021A000CDD0002318461037BD4680BD80B584B021
:1021B00000AFF860B9607A602CE07A68B968F868B6
:1021C00000F070F80346002B01D001232AE0BB6821
:1021D000B3F1FF3F1ED0FEF75FFD02467B68D31AC6
:1021E000BA689A4202D3BB68002B13D1FB685B6CC0
:1021F00043F02002FB685A64FB68202283F84120E8
:10220000FB68002283F84220FB68002283F840200C
:10221000012307E0FB681B689B6903F00203022BA4
:10222000CBD1002318461037BD4680BD80B584B0A1
:1022300000AFF860B9607A6028E07A68B968F86839
:1022400000F030F80346002B01D0012326E0FEF712
:1022500023FD02467B68D31ABA689A4202D3BB6850
:10226000002B13D1FB685B6C43F02002FB685A64BF
:10227000FB68202283F84120FB68002283F842207B
:10228000FB68002283F84020012307E0FB681B68FD
:102290009B6903F02003202BCFD100231846103771
:1022A000BD4680BD80B584B000AFF860B9607A608B
:1022B000FB681B689B6903F01003102B51D122E0CF
:1022C000BB68B3F1FF3F1ED0FEF7E6FC02467B6819
:1022D000D31ABA689A4202D3BB68002B13D1FB68A9
:1022E0005B6C43F02002FB685A64FB68202283F891
:1022F0004120FB68002283F84220FB68002283F81B
:10230000402001232EE0FB681B689B6903F020033B
:10231000202BD5D1FB681B681022DA61FB681B6893
:102320002022DA61F868FFF7DDFEFB681B68596858
:10233000FB681A680D4B0B405360FB685B6C43F005
:102340000402FB685A64FB68202283F84120FB6882
:10235000002283F84220FB68002283F840200123FA
:1023600000E0002318461037BD4680BD00E800FE9F
:1023700080B485B000AFF8607B600B467B8113466C
:102380007B72FB681B685A68BB695B0D03F4806154
:102390000D4B0B43DB4302EA03017B89C3F30902C4
:1023A0007B7A1B0403F47F031A437B681A43BB69DF
:1023B0001A43FB681B680A435A6000BF1437BD46C6
:1023C0005DF8047B704700BFFF63FF0380B400AF7C
:1023D000054B1B68044A43F48073136000BFBD467D
:1023E0005DF8047B704700BF0070004080B400AF10
:1023F000044B1B6803F4C0631846BD465DF8047BBC
:10240000704700BF0070004080B485B000AF7860B6
:102410007B68B3F5007F30D1234B1B6803F4C063A6
:10242000B3F5007F38D0204B1B6823F4C0631E4AED
:1024300043F4007313601D4B1B68322202FB03F34D
:102440001B4AA2FB03239B0C0133FB6002E0FB68E9
:10245000013BFB60144B5B6903F48063B3F5806F51
:1024600002D1FB68002BF2D10F4B5B6903F4806350
:10247000B3F5806F10D103230FE00B4B1B6803F4FF
:10248000C063B3F5806F07D0074B1B6823F4C063AC
:10249000054A43F480631360002318461437BD4691
:1024A0005DF8047B704700BF007000400000002012
:1024B00083DE1B4380B588B000AF78607B68002B5B
:1024C00001D1012353E3A34B9B6803F00C03BB61D1
:1024D000A04BDB6803F003037B617B681B6803F0A0
:1024E0001003002B00F0DF80BB69002B07D0BB6915
:1024F0000C2B40F086807B69012B40F08280954B4D
:102500001B6803F00203002B05D07B689B69002B3E
:1025100001D101232BE37B681A6A8E4B1B6803F001
:102520000803002B04D08B4B1B6803F0F00305E07D
:10253000884BD3F894301B0903F0F003934223D265
:102540007B681B6A184600F093FC0346002B01D001
:1025500001230CE37F4B1B687E4A43F008031360A2
:102560007C4B1B6823F0F0027B681B6A794913439C
:102570000B60784B5B6823F47F427B68DB691B024E
:10258000744913434B6022E0724B1B68714A43F05D
:10259000080313606F4B1B6823F0F0027B681B6A13
:1025A0006C4913430B606B4B5B6823F47F427B6881
:1025B000DB691B02674913434B607B681B6A184643
:1025C00000F056FC0346002B01D00123CFE200F0BF
:1025D000B3FB01465F4B9B681B0903F00F035E4A88
:1025E000D35C03F01F0321FA03F35C4A136000205D
:1025F00002F036FF0346FB73FB7B002B52D0FB7BC4
:10260000B5E27B689B69002B32D0524B1B68514A64
:1026100043F001031360FEF73FFB386108E0FEF76B
:102620003BFB02463B69D31A022B01D903239EE2EE
:10263000484B1B6803F00203002BF0D0454B1B688E
:10264000444A43F008031360424B1B6823F0F00236
:102650007B681B6A3F4913430B603E4B5B6823F466
:102660007F427B68DB691B023A4913434B601AE0E7
:10267000384B1B68374A23F001031360FEF70CFB4D
:10268000386108E0FEF708FB02463B69D31A022BCB
:1026900001D903236BE22F4B1B6803F00203002BCD
:1026A000F0D100E000BF7B681B6803F00103002B42
:1026B00072D0BB69082B05D0BB690C2B0ED17B698E
:1026C000032B0BD1234B1B6803F40033002B62D088
:1026D0007B685B68002B5ED1012348E27B685B6806
:1026E000B3F5803F06D11B4B1B681A4A43F4803375
:1026F00013601DE07B685B68B3F5A02F0CD1154B10
:102700001B68144A43F480231360124B1B68114A60
:1027100043F4803313600BE00E4B1B680D4A23F427
:10272000803313600B4B1B680A4A23F48023136029
:102730007B685B68002B1AD0FEF7AEFA38610FE0B9
:10274000FEF7AAFA02463B69D31A642B08D9032381
:102750000DE200BF00100240C88400080000002005
:10276000AE4B1B6803F40033002BE9D014E0FEF7F6
:1027700093FA386108E0FEF78FFA02463B69D31AF4
:10278000642B01D90323F2E1A44B1B6803F400334B
:10279000002BF0D100E000BF7B681B6803F0020350
:1027A000002B60D0BB69042B05D0BB690C2B19D161
:1027B0007B69022B16D1994B1B6803F48063002BB5
:1027C00005D07B68DB68002B01D10123CFE1934B5F
:1027D0005B6823F0F8527B681B691B068F49134323
:1027E0004B6040E07B68DB68002B23D08B4B1B6881
:1027F0008A4A43F480731360FEF74EFA386108E0AA
:10280000FEF74AFA02463B69D31A022B01D9032389
:10281000ADE1824B1B6803F48063002BF0D07F4B4B
:102820005B6823F0F8527B681B691B067B491343E6
:102830004B6018E0794B1B68784A23F4807313606F
:10284000FEF72AFA386108E0FEF726FA02463B69ED
:10285000D31A022B01D9032389E1704B1B6803F4BF
:102860008063002BF0D17B681B6803F00803002B0A
:102870003CD07B685B69002B1CD0684BD3F894304C
:10288000664A43F00103C2F89430FEF705FA386156
:1028900008E0FEF701FA02463B69D31A022B01D980
:1028A000032364E15D4BD3F8943003F00203002B63
:1028B000EFD01BE0594BD3F89430584A23F0010372
:1028C000C2F89430FEF7E8F9386108E0FEF7E4F961
:1028D00002463B69D31A022B01D9032347E14F4B30
:1028E000D3F8943003F00203002BEFD17B681B6810
:1028F00003F00403002B00F0A5800023FB77474B77
:102900009B6D03F08053002B0DD1444B9B6D434ACC
:1029100043F080539365414B9B6D03F08053BB6044
:10292000BB680123FB773E4B1B6803F48073002BCD
:1029300018D13B4B1B683A4A43F480731360FEF78F
:10294000ABF9386108E0FEF7A7F902463B69D31AF4
:10295000022B01D903230AE1314B1B6803F4807376
:10296000002BF0D07B689B68012B08D12B4BD3F850
:1029700090302A4A43F00103C2F8903024E07B688B
:102980009B68052B10D1254BD3F89030234A43F098
:102990000403C2F89030214BD3F890301F4A43F023
:1029A0000103C2F890300FE01C4BD3F890301B4A63
:1029B00023F00103C2F89030184BD3F89030174A37
:1029C00023F00403C2F890307B689B68002B16D07C
:1029D000FEF762F938610AE0FEF75EF902463B69EC
:1029E000D31A41F28832934201D90323BFE00B4B43
:1029F000D3F8903003F00203002BEDD019E0FEF77E
:102A00004BF938610EE0FEF747F902463B69D31AED
:102A100041F28832934205D90323A8E00010024016
:102A200000700040544BD3F8903003F00203002BA9
:102A3000E9D1FB7F012B05D14F4B9B6D4E4A23F013
:102A4000805393657B689B6A002B00F08F80BB6985
:102A50000C2B00F089807B689B6A022B56D1464B79
:102A60001B68454A23F080731360FEF715F938613F
:102A700008E0FEF711F902463B69D31A022B01D98F
:102A8000032374E03C4B1B6803F00073002BF0D170
:102A90007B681B6B013B1A017B685B6B1B021A4353
:102AA0007B689B6B1B095B041A437B68DB6A1A43D8
:102AB0007B68DB6B5B08013B5B051A437B681B6C27
:102AC0005B08013B5B062C491343CB602A4B1B6818
:102AD000294A43F080731360274BDB68264A43F092
:102AE0008073D360FEF7D8F8386108E0FEF7D4F8B9
:102AF00002463B69D31A022B01D9032337E01E4B50
:102B00001B6803F00073002BF0D02FE01A4B1B68FA
:102B1000194A23F080731360174B1B6803F020538E
:102B2000002B05D1144BDB68134A23F00303D36059
:102B3000114BDB68104A23F0887323F48033D36091
:102B4000FEF7AAF8386108E0FEF7A6F802463B69EE
:102B5000D31A022B01D9032309E0074B1B6803F0AA
:102B60000073002BF0D101E0012300E000231846A0
:102B70002037BD4680BD00BF0010024080B584B044
:102B800000AF786039607B68002B01D10123C6E07B
:102B9000654B1B6803F007033A689A4210D9624BF1
:102BA0001B6823F0070260493B6813430B605E4BD0
:102BB0001B6803F007033A689A4201D00123AEE094
:102BC0007B681B6803F00103002B4CD07B685B68BB
:102BD000032B07D1554B1B6803F00073002B21D149
:102BE00001239CE07B685B68022B07D14F4B1B687D
:102BF00003F40033002B15D1012390E07B685B6860
:102C0000002B07D1494B1B6803F00203002B09D1AD
:102C1000012384E0454B1B6803F48063002B01D142
:102C200001237CE0414B9B6823F003027B685B68D7
:102C30003E4913438B60FEF72FF8F8600AE0FEF779
:102C40002BF80246FB68D31A41F28832934201D92D
:102C5000032364E0354B9B6803F00C027B685B68E0
:102C60009B009A42EBD17B681B6803F00203002BA8
:102C700008D02E4B9B6823F0F0027B689B682B49A1
:102C800013438B60284B1B6803F007033A689A4292
:102C900010D2254B1B6823F0070223493B681343DE
:102CA0000B60214B1B6803F007033A689A4201D07E
:102CB000012334E07B681B6803F00403002B08D079
:102CC0001A4B9B6823F4E0627B68DB681749134367
:102CD0008B607B681B6803F00803002B09D0134B43
:102CE0009B6823F460527B681B69DB000F49134328
:102CF0008B6000F021F801460C4B9B681B0903F028
:102D00000F030B4AD35C03F01F0321FA03F3094AB4
:102D10001360002002F0A4FB0346FB72FB7A184606
:102D20001037BD4680BD00BF0020024000100240A9
:102D3000C88400080000002080B489B000AF0023E0
:102D4000FB610023BB61464B9B6803F00C033B61B6
:102D5000434BDB6803F00303FB603B69002B05D0AA
:102D60003B690C2B21D1FB68012B1ED13C4B1B680E
:102D700003F00803002B07D1394BD3F894301B0A1A
:102D800003F00F03FB6105E0354B1B681B0903F0E3
:102D90000F03FB61334AFB6952F82330FB613B6947
:102DA000002B0DD1FB69BB610AE03B69042B02D10A
:102DB0002D4BBB6104E03B69082B01D12B4BBB6160
:102DC0003B690C2B45D1264BDB6803F00303BB604A
:102DD000234BDB681B0903F0070301337B60BB68EF
:102DE000022B02D0032B0DD019E01F4A7B68B2FBE7
:102DF000F3F31B4AD268120A02F07F0202FB03F3CC
:102E00007B6119E0194A7B68B2FBF3F3144AD2687C
:102E1000120A02F07F0202FB03F37B610CE0FA6905
:102E20007B68B2FBF3F30E4AD268120A02F07F020B
:102E300002FB03F37B6100BF094BDB685B0E03F011
:102E4000030301335B003B607A693B68B2FBF3F339
:102E5000BB61BB6918462437BD465DF8047B7047EB
:102E600000100240E08400080024F40000127A0000
:102E700080B586B000AF786000233B612A4B9B6D24
:102E800003F08053002B03D0FFF7B0FA786114E011
:102E9000254B9B6D244A43F080539365224B9B6DD9
:102EA00003F08053FB60FB68FFF7A0FA78611E4BCC
:102EB0009B6D1D4A23F0805393657B69B3F5007FBA
:102EC0000BD17B68802B19D97B68A02B02D90223F8
:102ED0003B6113E001233B6110E07B68802B02D94A
:102EE00003233B610AE07B68802B02D102233B6114
:102EF00004E07B68702B01D101233B610B4B1B6805
:102F000023F0070209493B6913430B60074B1B6819
:102F100003F007033A699A4201D0012300E000233D
:102F200018461837BD4680BD001002400020024000
:102F300080B586B000AF78600023FB740023BB74BB
:102F40007B681B6803F40063002B3FD07B685B6EDB
:102F5000B3F5800F1CD0B3F5800F02D8002B0ED034
:102F60001FE0B3F5000F03D0B3F5400F1CD018E0FD
:102F7000854BDB68844A43F48033D36015E07B687B
:102F800004330021184600F0C9FA0346FB740CE034
:102F90007B6820330021184600F0B0FB0346FB7429
:102FA00003E00123FB7400E000BFFB7C002B0BD18E
:102FB000754BD3F8883023F440027B685B6E72490E
:102FC0001343C1F8883001E0FB7CBB747B681B684D
:102FD00003F48053002B3FD07B689B6EB3F1807F5E
:102FE0001CD0B3F1807F02D8002B0ED01FE0B3F1CC
:102FF000007F03D0B3F1407F1CD018E0624BDB6848
:10300000614A43F48033D36015E07B6804330021C8
:10301000184600F083FA0346FB740CE07B6820330B
:103020000021184600F06AFB0346FB7403E001230D
:10303000FB7400E000BFFB7C002B0BD1524BD3F89C
:10304000883023F040727B689B6E4F491343C1F870
:10305000883001E0FB7CBB747B681B6803F40033A1
:10306000002B00F0A08000237B74474B9B6D03F086
:103070008053002B01D1012300E00023002B0DD051
:10308000414B9B6D404A43F0805393653E4B9B6D93
:1030900003F08053BB60BB6801237B743B4B1B6810
:1030A0003A4A43F480731360FDF7F6FDF86009E0D7
:1030B000FDF7F2FD0246FB68D31A022B02D9032367
:1030C000FB7405E0314B1B6803F48073002BEFD0D9
:1030D000FB7C002B5CD12C4BD3F8903003F4407375
:1030E0007B617B69002B1FD07B68D3F884307A69C1
:1030F0009A4219D0244BD3F8903023F440737B616B
:10310000214BD3F89030204A43F48033C2F89030FA
:103110001D4BD3F890301C4A23F48033C2F8903012
:10312000194A7B69C2F890307B6903F00103002BD8
:1031300016D0FDF7B1FDF8600BE0FDF7ADFD0246DE
:10314000FB68D31A41F28832934202D90323FB74FD
:1031500006E00D4BD3F8903003F00203002BECD0C7
:10316000FB7C002B0CD1084BD3F8903023F4407239
:103170007B68D3F8843004491343C1F8903009E0E8
:10318000FB7CBB7406E000BF0010024000700040F2
:10319000FB7CBB747B7C012B05D19E4B9B6D9D4AB8
:1031A00023F0805393657B681B6803F00103002BB9
:1031B0000AD0984BD3F8883023F003027B689B6BCE
:1031C00094491343C1F888307B681B6803F00203FD
:1031D000002B0AD08F4BD3F8883023F00C027B6889
:1031E000DB6B8C491343C1F888307B681B6803F0A4
:1031F0000403002B0AD0874BD3F8883023F0300229
:103200007B681B6C83491343C1F888307B681B685B
:1032100003F00803002B0AD07E4BD3F8883023F04C
:10322000C0027B685B6C7B491343C1F888307B68C4
:103230001B6803F01003002B0AD0764BD3F88830BC
:1032400023F440727B689B6C72491343C1F8883049
:103250007B681B6803F02003002B0AD06D4BD3F86A
:10326000883023F440627B68DB6C6A491343C1F801
:1032700088307B681B6803F40073002B0AD0654B11
:10328000D3F8883023F440227B68DB6D6149134317
:10329000C1F888307B681B6803F48063002B0AD078
:1032A0005C4BD3F8883023F440127B681B6E59497D
:1032B0001343C1F888307B681B6803F04003002B80
:1032C0000AD0544BD3F8883023F440527B681B6DEE
:1032D00050491343C1F888307B681B6803F08003B2
:1032E000002B0AD04B4BD3F8883023F440427B6844
:1032F0005B6D48491343C1F888307B681B6803F451
:103300008073002B0AD0434BD3F8883023F440322B
:103310007B689B6D3F491343C1F888307B681B680D
:1033200003F40053002B28D03A4BD3F8883023F015
:1033300040627B68DB6E37491343C1F888307B6895
:10334000DB6EB3F1006F06D1324BDB68314A43F4D8
:103350008013D36011E07B68DB6EB3F1806F0CD11A
:103360007B6804330121184600F0D8F80346FB744B
:10337000FB7C002B01D0FB7CBB747B681B6803F4D7
:103380000023002B28D0234BD3F8883023F0406251
:103390007B681B6F1F491343C1F888307B681B6F24
:1033A000B3F1006F06D11B4BDB681A4A43F480135C
:1033B000D36011E07B681B6FB3F1806F0CD17B6829
:1033C00004330121184600F0A9F80346FB74FB7C86
:1033D000002B01D0FB7CBB747B681B6803F480234B
:1033E000002B2BD00B4BD3F8883023F040627B6846
:1033F0005B6F08491343C1F888307B685B6FB3F19A
:10340000006F09D1034BDB68024A43F48013D36099
:1034100014E000BF001002407B685B6FB3F1806F67
:103420000CD17B6804330121184600F077F803467D
:10343000FB74FB7C002B01D0FB7CBB747B681B689E
:1034400003F48043002B2FD02B4BD3F8883023F08C
:1034500040527B689B6F28491343C1F888307B68D2
:103460009B6FB3F1805F0DD17B6804330221184656
:1034700000F054F80346FB74FB7C002B14D0FB7C5B
:10348000BB7411E07B689B6FB3F1005F0CD17B686C
:1034900020330221184600F031F90346FB74FB7C0F
:1034A000002B01D0FB7CBB747B681B6803F40043DA
:1034B000002B0AD0104BD3F8883023F080427B6871
:1034C000DB6F0D491343C1F888307B681B6803F438
:1034D0008033002B0BD0084BD3F8883023F0004208
:1034E0007B68D3F8803004491343C1F88830BB7C33
:1034F00018461837BD4680BD0010024080B400AFAA
:10350000054B1B68044A43F00403136000BFBD462B
:103510005DF8047B704700BF0010024080B584B0A6
:1035200000AF786039600023FB73734BDB6803F0F6
:103530000303002B18D0704BDB6803F003027B6899
:103540001B689A420DD17B681B68002B09D06A4B1F
:10355000DB681B0903F007035A1C7B685B689A420F
:1035600044D00123FB7341E07B681B68022B0CD025
:10357000032B13D0012B20D15F4B1B6803F00203F8
:10358000002B1DD10123FB731AE05B4B1B6803F476
:103590008063002B16D10123FB7313E0564B1B688D
:1035A00003F40033002B0FD1534B1B6803F480232B
:1035B000002B09D10123FB7306E00123FB7304E018
:1035C00000BF02E000BF00E000BFFB7B002B0DD17D
:1035D000494BDB6823F073027B6819687B685B6882
:1035E000013B1B010B4344491343CB60FB7B002B86
:1035F0007DD1414B1B68404A23F080631360FDF787
:103600004BFBB86009E0FDF747FB0246BB68D31AE5
:10361000022B02D90323FB7305E0374B1B6803F031
:103620000063002BEFD1FB7B002B60D13B68002BAC
:1036300011D1314B1B6923F41F3323F440737A6893
:10364000926811027A68D268120952040A432A4920
:1036500013430B6127E03B68012B12D1264B1B69FA
:1036600023F4C00323F4FE437A68926811027A6857
:1036700012695208013A52050A431F4913430B616C
:1036800011E01D4B1B6923F0C06323F4FE437A68ED
:10369000926811027A6852695208013A52060A4346
:1036A000154913430B61144B1B68134A43F08063A5
:1036B0001360FDF7F1FAB86009E0FDF7EDFA024694
:1036C000BB68D31A022B02D90323FB7305E00A4B14
:1036D0001B6803F00063002BEFD0FB7B002B06D1AF
:1036E000054B1A697B689B69034913430B61FB7B9C
:1036F00018461037BD4680BD0010024080B584B02A
:1037000000AF786039600023FB73684BDB6803F01F
:103710000303002B18D0654BDB6803F003027B68C2
:103720001B689A420DD17B681B68002B09D05F4B48
:10373000DB681B0903F007035A1C7B685B689A422D
:1037400044D00123FB7341E07B681B68022B0CD043
:10375000032B13D0012B20D1544B1B6803F0020321
:10376000002B1DD10123FB731AE0504B1B6803F49F
:103770008063002B16D10123FB7313E04B4B1B68B6
:1037800003F40033002B0FD1484B1B6803F4802354
:10379000002B09D10123FB7306E00123FB7304E036
:1037A00000BF02E000BF00E000BFFB7B002B0DD19B
:1037B0003E4BDB6823F073027B6819687B685B68AB
:1037C000013B1B010B4339491343CB60FB7B002BAF
:1037D00067D1364B1B68354A23F080531360FDF7E1
:1037E0005BFAB86009E0FDF757FA0246BB68D31AE6
:1037F000022B02D90323FB7305E02C4B1B6803F05B
:103800000053002BEFD1FB7B002B4AD13B68002BF0
:1038100011D1264B5B6923F41F3323F440737A687C
:10382000926811027A68D268120952040A431F4949
:1038300013434B6111E01D4B5B6923F0C06323F41C
:10384000FE437A68926811027A6812695208013A56
:1038500052060A43154913434B61144B1B68134A24
:1038600043F080531360FDF717FAB86009E0FDF7E5
:1038700013FA0246BB68D31A022B02D90323FB7347
:1038800005E00A4B1B6803F00053002BEFD0FB7BD5
:10389000002B06D1054B5A697B685B6903491343CA
:1038A0004B61FB7B18461037BD4680BD00100240BF
:1038B00080B586B000AFF860B9607A60FB681B68BD
:1038C0009A6ABB685A60FB681B681B69C3F30E02E7
:1038D000BB689A60FB681B681B6803F07F3323F0AA
:1038E000FE437B617B691B0CDBB203F03F03DAB262
:1038F000BB681A707B691B0ADBB203F07F03DAB284
:10390000BB685A707B69DBB203F07F03DAB2BB6835
:103910009A707B699B0DDBB203F00103DAB2BB68DE
:10392000DA707B68002B1AD1BB681B78184600F050
:1039300075FA03461A46BB681A70BB685B7818466E
:1039400000F06CFA03461A46BB685A70BB689B7855
:10395000184600F063FA03461A46BB689A700023C3
:1039600018461837BD4680BD80B586B000AFF860F8
:10397000B9607A60FB681B685B6823F07F4323F0C3
:10398000C0037B617B691B0CDAB2BB68DA707B69B0
:103990001B0ADBB203F01F03DAB2BB685A707B6903
:1039A000DBB203F03F03DAB2BB689A707B695B0B52
:1039B000DBB203F00703DAB2BB681A707B68002B36
:1039C0001AD1BB68DB78184600F028FA03461A467D
:1039D000BB68DA70BB685B78184600F01FFA0346D4
:1039E0001A46BB685A70BB689B78184600F016FAF6
:1039F00003461A46BB689A70002318461837BD461E
:103A000080BD000090B589B000AFF860B9607A6001
:103A1000FB6893F82030012B01D1022343E1FB68BE
:103A2000012283F82020FB68022283F821207B6892
:103A3000002B36D1FB681B689B6803F04003002B0A
:103A400002D1BB680022DA70BB681B78184600F010
:103A5000C5F903461C04BB685B78184600F0BEF944
:103A600003461B021C43BB689B78184600F0B6F95E
:103A700003462343BA68D278920543EA0204BB683E
:103A800093F82030184600F0A9F903461B0644EAD3
:103A90000302BB68DB691A43BB685B691343FB61C4
:103AA00040E0FB681B689B6803F04003002B07D0D5
:103AB000BB681B78184600F0B1F90346FB6102E0D1
:103AC000BB680022DA70BB68DB69002B08D1BB68D9
:103AD00093F82030184600F0A1F90346FB6107E097
:103AE000BB6893F82030184600F098F90346FB6154
:103AF000BB681B781A04BB685B781B021343BA6867
:103B000092781A43BB68DB789B051A43BB6893F82D
:103B100020301B061A43BB68DB691A43BB685B692C
:103B20001343FB61BB685A68BB689B691343BB6165
:103B3000FB681B68CA225A62FB681B6853225A62E0
:103B4000BB685B6AB3F5807F4AD1FB681B689A68E3
:103B5000FB681B6822F480729A60FB681B68DB6854
:103B6000DAB2FB681B6862F4C072DA60FDF794F8A1
:103B7000786115E0FDF790F802467B69D31AB3F53A
:103B80007A7F0DD9FB681B68FF225A62FB6803220B
:103B900083F82120FB68002283F82020032382E0A1
:103BA000FB681B68DB6803F00103002BE2D0FB68B5
:103BB0001B68FA69DA61FB681B68BA695A64FB68BA
:103BC0001B689A68FB681B6842F480729A60FB6805
:103BD0001B689A68FB681B6842F480529A6049E04F
:103BE000FB681B689A68FB681B6822F400729A6085
:103BF000FB681B68DB68DAB2FB681B6862F4207242
:103C0000DA60FDF749F8786115E0FDF745F80246FE
:103C10007B69D31AB3F57A7F0DD9FB681B68FF2245
:103C20005A62FB68032283F82120FB68002283F894
:103C30002020032337E0FB681B68DB6803F00203E6
:103C4000002BE2D0FB681B68FA691A62FB681B68EC
:103C5000BA699A64FB681B689A68FB681B6842F43F
:103C600000729A60FB681B689A68FB681B6842F4E4
:103C700000529A600E4B1B680D4A43F48023136078
:103C80000B4B9B680A4A43F480239360FB681B68D4
:103C9000FF225A62FB68012283F82120FB68002280
:103CA00083F82020002318462437BD4690BD00BF6E
:103CB0000004014080B584B000AF786039607B6853
:103CC00093F82030012B01D1022383E07B6801228D
:103CD00083F820207B68022283F821207B681B6800
:103CE000CA225A627B681B6853225A623B68B3F54A
:103CF000807F31D17B681B689A687B681B6822F4DF
:103D000080729A607B681B689A687B681B6822F4E3
:103D100080529A60FCF7C0FFF86015E0FCF7BCFF2A
:103D20000246FB68D31AB3F57A7F0DD97B681B680E
:103D3000FF225A627B68032283F821207B680022DD
:103D400083F82020032345E07B681B68DB6803F0D1
:103D50000103002BE2D030E07B681B689A687B6827
:103D60001B6822F400729A607B681B689A687B6803
:103D70001B6822F400529A60FCF78EFFF86015E091
:103D8000FCF78AFF0246FB68D31AB3F57A7F0DD998
:103D90007B681B68FF225A627B68032283F821201C
:103DA0007B68002283F82020032313E07B681B68D4
:103DB000DB6803F00203002BE2D07B681B68FF2264
:103DC0005A627B68012283F821207B68002283F8F5
:103DD0002020002318461037BD4680BD80B485B032
:103DE00000AF0346FB710023FB60FB79FB7205E02B
:103DF000FB680133FB60FB7A0A3BFB72FB7A092B01
:103E0000F6D8FB68DBB21B01DAB2FB7A1343DBB2F4
:103E100018461437BD465DF8047B704780B485B002
:103E200000AF0346FB71FB791B09DBB21A46920017
:103E300013445B00FB73FB7903F00F03DAB2FB7BE7
:103E40001344DBB218461437BD465DF8047B704757
:103E500080B588B002AFF860B9603B601346FB8064
:103E600000237B61FB6893F87130DBB2202B77D1A4
:103E7000BB68002B02D0FB88002B01D1012370E02E
:103E8000FB6893F87030012B01D1022369E0FB68D5
:103E9000012283F87020FB6800225A67FB68212208
:103EA00083F87120FCF7F8FE7861FB68FA88A3F8C4
:103EB0005020FB68FA88A3F8522034E03B68009356
:103EC0007B6900228021F86800F088F90346002B06
:103ED00001D0032345E0FB689B68B3F5805F11D1F7
:103EE000FB681B69002B0DD1BB683B613B691A88DD
:103EF000FB681B68C2F3080292B21A85BB680233E2
:103F0000BB6007E0BB685A1CBA601A78FB681B6884
:103F100092B21A85FB68B3F852309BB2013B9AB259
:103F2000FB68A3F85220FB68B3F852309BB2002B19
:103F3000C4D13B6800937B6900224021F86800F0FF
:103F40004DF90346002B01D003230AE0FB68202231
:103F500083F87120FB68002283F87020002300E0C2
:103F6000022318461837BD4680BD000080B586B0D4
:103F700000AF78607B681B68DB697B617B681B68CE
:103F80001B683B617B681B689B68FB607B6903F077
:103F90000F03BB60BB68002B13D17B6903F02003C8
:103FA000002B0ED03B6903F02003002B09D07B6867
:103FB0001B6E002B00F0FD807B681B6E78689847B5
:103FC000F7E0BB68002B00F0BF80FB6803F0010343
:103FD000002B05D13B6903F49073002B00F0B480F3
:103FE0007B6903F00103002B0ED03B6903F480735F
:103FF000002B09D07B681B6801221A627B685B6F0B
:1040000043F001027B685A677B6903F00203002BCF
:104010000ED0FB6803F00103002B09D07B681B68FE
:1040200002221A627B685B6F43F004027B685A6766
:104030007B6903F00403002B0ED0FB6803F001033F
:10404000002B09D07B681B6804221A627B685B6FB7
:1040500043F002027B685A677B6903F00803002B78
:1040600013D03B6903F02003002B04D1FB6803F05D
:104070000103002B09D07B681B6808221A627B6849
:104080005B6F43F008027B685A677B685B6F002BAD
:1040900000F091807B6903F02003002B0CD03B697A
:1040A00003F02003002B07D07B681B6E002B03D08E
:1040B0007B681B6E786898477B685B6F03F008032A
:1040C000002B06D17B681B689B6803F04003402BE4
:1040D00031D1786800F0CCF87B681B689B6803F0EE
:1040E0004003402B23D17B681B689A687B681B6860
:1040F00022F040029A607B68DB6E002B13D07B6855
:10410000DB6E304A9A637B68DB6E1846FDF739FA3E
:104110000346002B16D07B68DB6E9B6B7A68D26EF1
:10412000104698470EE0786800F04EF80AE078688C
:1041300000F04AF806E0786800F046F87B68002254
:104140005A6738E000BF36E07B6903F48013002B28
:104150000DD0FB6803F48003002B08D07B681B683C
:104160004FF480121A62786800F0D3F826E07B6979
:1041700003F08003002B0DD03B6903F08003002B7C
:1041800008D07B685B6E002B17D07B685B6E78680D
:10419000984712E07B6903F04003002B0ED03B6987
:1041A00003F04003002B09D0786800F098F800BFB6
:1041B00004E000BF02E000BF00E000BF1837BD46CA
:1041C00080BD00BFB342000880B483B000AF786008
:1041D00000BF0C37BD465DF8047B704780B584B0E6
:1041E00000AFF860B9603B601346FB712CE0BB691F
:1041F000B3F1FF3F28D0BB69002B07D0FCF74CFD83
:1042000002463B68D31ABA699A421DD2FB681B6802
:104210001A68FB681B6822F4D0721A60FB681B687E
:104220009A68FB681B6822F001029A60FB682022F2
:1042300083F87120FB68202283F87220FB6800223B
:1042400083F8702003230FE0FB681B68DA69BB6802
:104250001340BA689A420CBF01230023DBB21A460E
:10426000FB799A42C3D0002318461037BD4680BD63
:1042700080B483B000AF78607B681B681A687B6885
:104280001B6822F490721A607B681B689A687B68CE
:104290001B6822F001029A607B68202283F872205A
:1042A0007B6800221A6600BF0C37BD465DF8047BB0
:1042B000704780B584B000AF78607B689B6AFB6014
:1042C000FB680022A3F85A20FB680022A3F85220C2
:1042D000F868FFF779FF00BF1037BD4680BD80B595
:1042E00082B000AF78607B681B681A687B681B68C7
:1042F00022F040021A607B68202283F871207B68DC
:1043000000225A66786801F089FA00BF0837BD4676
:1043100080BD80B483B000AF786000BF0C37BD466D
:104320005DF8047B7047000080B582B000AF786014
:104330000B46FB700D4AFB7813700D4A7B681360C7
:104340000B4B1B68184600F045F90346012B08D0BB
:10435000074B1B680121184600F0FAF90346012BB0
:1043600000E000BF0837BD4680BD00BF9C040020B0
:10437000A004002080B500AF214B1B680121184626
:1043800000F024FA0346012B01D1012335E01C4B38
:104390001B680321184600F057FA0346012B01D190
:1043A00001232AE0164B1B68184600F08DFA0346DD
:1043B000012B01D1012320E0114B1B68302118464D
:1043C00000F07AF90346012B01D1012315E00C4BD3
:1043D0001B680421184600F023F90346012B01D184
:1043E00001230AE0064B1B68184600F0CDF803468F
:1043F000012B01D1012300E00023184680BD00BF3E
:10440000A004002080B584B000AFF8607A601A463E
:104410000B46FB7213463B813B89FA7A7968F86850
:1044200000F046F8034618461037BD4680BD80B5FB
:1044300084B000AFF8607A601A460B46FB721346F0
:104440003B813B89FA7A7968F86800F005F8034601
:1044500018461037BD4680BD80B58AB004AFF860FD
:10446000B96011461A460B46FB711346BB80012307
:10447000FB75FB680C4A934211D10C4B1B7899B227
:10448000FB799AB24FF47A730293BB880193BB68AD
:1044900000930123F868FDF763FC0346FB75FB7D81
:1044A00018461837BD4680BD6C0500209C040020CE
:1044B00080B58AB004AFF860B96011461A460B4661
:1044C000FB711346BB800123FB75FB680C4A9342CA
:1044D00011D10C4B1B7899B2FB799AB24FF47A73D5
:1044E0000293BB880193BB6800930123F868FDF732
:1044F00023FB0346FB75FB7D18461837BD4680BD80
:104500006C0500209C04002080B584B000AFF860EA
:104510007B600B46FB7213463B813B89012B03D921
:10452000FB7A63F07F03FB723B89F97A7A68F8685B
:10453000FFF77DFF0346002B01D0012300E000239D
:1045400018461037BD4680BD80B584B000AFF86016
:104550007B600B46FB7213463B813B89012B03D9E1
:10456000FB7A63F07F03FB723B89F97A7A68F8681B
:10457000FFF748FF0346002B01D0012300E0002392
:1045800018461037BD4680BD80B584B000AF786056
:1045900007F10F03012220217868FFF7B5FF0346DA
:1045A000002B01D0012311E0FB7B63F07F03DBB222
:1045B000FB7307F10F03012220217868FFF7C4FF86
:1045C0000346002B01D0012300E0002318461037DA
:1045D000BD4680BD80B584B000AF786007F10F03A1
:1045E000012220217868FFF78FFF0346002B01D0BE
:1045F000012311E0FB7B03F07F03DBB2FB7307F1C8
:104600000F03012220217868FFF79EFF0346002B4D
:1046100001D0012300E0002318461037BD4680BDBD
:1046200080B584B000AF78600B46FB70FB78002B40
:1046300019D0FB78012B16D0FB78022B13D0FB7816
:10464000032B10D0FB78042B0DD0FB78052B0AD060
:10465000FB78062B07D0FB78072B04D040F22121F2
:10466000144800F057F907F10F0301221021786870
:10467000FFF74AFF0346002B01D0012316E0FB7B26
:1046800023F00703DBB2FB73FA7BFB781343DBB247
:10469000FB7307F10F03012210217868FFF754FF25
:1046A0000346002B01D0012300E0002318461037F9
:1046B000BD4680BDA883000880B584B000AF786097
:1046C0000B46FB70FB78002B19D0FB78082B16D01B
:1046D000FB78102B13D0FB78182B10D0FB78202BF5
:1046E0000DD0FB78282B0AD0FB78302B07D0FB7835
:1046F000382B04D040F23921144800F00BF907F1AF
:104700000F03012210217868FFF7FEFE0346002BFD
:1047100001D0012316E0FB7B23F03803DBB2FB73EF
:10472000FA7BFB781343DBB2FB7307F10F03012223
:1047300010217868FFF708FF0346002B01D0012302
:1047400000E0002318461037BD4680BDA88300084E
:1047500080B584B000AF78600B46FB70FB78012B0E
:1047600007D0FB78002B04D040F26721164800F0F8
:10477000D1F807F10F03012220217868FFF7C4FE6A
:104780000346002B01D001231AE0FB7B23F0040336
:10479000DBB2FB73FB789B005AB2FB7B5BB213432B
:1047A0005BB2DBB2FB7307F10F03012220217868B3
:1047B000FFF7CAFE0346002B01D0012300E00023CF
:1047C00018461037BD4680BDA883000880B584B068
:1047D00000AF78600B46FB70FB78002B07D0FB78AE
:1047E000012B04D040F29321164800F093F807F112
:1047F0000F03012220217868FFF786FE0346002B75
:1048000001D001231AE0FB7B03F07F03DBB2FB73D3
:10481000FB78DB015AB2FB7B5BB213435BB2DBB2CA
:10482000FB7307F10F03012220217868FFF78CFE4C
:104830000346002B01D0012300E000231846103767
:10484000BD4680BDA883000880B584B000AF786005
:104850000B46FB70FB78002B0DD0FB78012B0AD0A8
:10486000FB78022B07D0FB78032B04D040F2BE214B
:10487000144800F04FF807F10F0301222021786857
:10488000FFF742FE0346002B01D0012316E0FB7B1D
:1048900023F00303DBB2FB73FA7BFB781343DBB239
:1048A000FB7307F10F03012220217868FFF74CFE0C
:1048B0000346002B01D0012300E0002318461037E7
:1048C000BD4680BDA883000880B584B000AF786085
:1048D00007F10F03012221217868FFF715FE034637
:1048E000002B01D0012311E0FB7B63F07F03DBB2DF
:1048F000FB7307F10F03012221217868FFF724FEE3
:104900000346002B01D0012300E000231846103796
:10491000BD4680BD80B582B000AF786039603B682D
:104920001A467968014801F05BFCFEE7C88300087D
:1049300080B58AB000AF7860002387F82730154B28
:10494000FB6006233B6100237B617F23BB61042363
:10495000FB6100233B62012204210F48FDF7AAF806
:104960004FF49670FCF7A4F907F10C031A46796826
:104970000A4800F015F8034687F827300022042182
:104980000548FDF797F897F8273018462837BD46B1
:1049900080BD00BF0020903600080048A40400201D
:1049A00080B588B000AFF860B9607A6000237B61A1
:1049B0000023FB610023BB612CE0F868FCF774FA6C
:1049C0000346002B01D000F00FFD0A21F868FCF728
:1049D00059FB0346002B01D000F006FDF868FCF7F8
:1049E0002EFC034603F40073B3F5007F07D1F8688B
:1049F000FCF718FC7861FA697B691344FB61F8687D
:104A0000FCF70CFB0346002B01D000F0EDFCBB696A
:104A10000133BB61BB69632BCFDDFB69074A82FBB6
:104A200003125211DB17D31AFB61FB699AB2BB6800
:104A30001A80002318462037BD4680BD1F85EB51E4
:104A400080B487B000AF03460A46FB711346BB71C2
:104A5000EFF310833B613B697B6172B6BB79002B3E
:104A600009D0012B00D00EE0FA790C4B1B681343E0
:104A70000A4A136007E0FB79DA43084B1B681340CE
:104A8000064A136000BF7B69FB60FB6883F31088F4
:104A900000BF1C37BD465DF8047B7047F401002061
:104AA00080B485B000AFEFF310837B607B68BB60A0
:104AB00072B60E4B1B68002B02D00023FB7308E07C
:104AC0000B4B1B68002B02D00123FB7301E0022378
:104AD000FB73BB683B603B6883F31088FB7B184625
:104AE0001437BD465DF8047B704700BFF401002019
:104AF000F801002090B587B000AF00F095F938615B
:104B000000F07CF9F860FA683B69D31ABB60334B5C
:104B10001B68002B1CD0314B1B687B6114E07B6948
:104B20001B697B607B681B68BA689A4206D27B6807
:104B30001A68BB68D21A7B681A6002E07B680022A0
:104B40001A607B691B697B617B691B69002BE6D15D
:104B5000224B1B68002B20D0204B1B687B611F4B16
:104B60001B681B691D4A13607B69DB68002B00D141
:104B7000FEE77B69DB6898470FE0184B1B687B6199
:104B8000164B1B681B69154A13607B69DB68002B99
:104B900000D1FEE77B69DB689847104B1B68002B50
:104BA00007D00E4B1B681C6800F0C6F803469C42F9
:104BB000E3D30A4B1B68002B0CD0084B1B681B7AF5
:104BC00083F00103DBB2002B04D0044B1B681846B2
:104BD00000F006F800BF1C37BD4690BDFC01002068
:104BE00090B585B000AF786000F06FF80346FB60C9
:104BF0007B6801221A727B681C6800F09DF80246EF
:104C0000FB6813449C4206D200F096F80246FB680B
:104C10001A447B681A607B681B68184600F05EF8CF
:104C200000BF1437BD4690BD80B584B000AF0346C9
:104C3000FB80FB88184600F013F80346FB60074A28
:104C4000FB6852F82330002B04D0044AFB6852F86A
:104C50002330984700BF1037BD4680BD00020020BA
:104C600080B485B000AF0346FB800023FB73FB8854
:104C700003F47F43002B03D0FB7B43F00803FB735B
:104C8000FA884FF2F0031340002B03D0FB7B43F074
:104C90000403FB73FA884CF6CC431340002B03D07B
:104CA000FB7B43F00203FB73FA884AF6AA23134006
:104CB000002B03D0FB7B43F00103FB73FB7B184607
:104CC0001437BD465DF8047B704780B400AF032302
:104CD0001846BD465DF8047B7047000090B583B070
:104CE00000AF7860134BB3F9003003331C4600F07B
:104CF00023F802467B689B1A9C4204D200210420C0
:104D0000FFF79EFE03E001210420FFF799FEFFF765
:104D1000C7FE0346012B06D1064BB3F900301A46F5
:104D20007B689B1A7B60786800F08AF800BF0C37BC
:104D3000BD4690BD4202002090B589B000AF07F19A
:104D400008023B1D1146184600F072F903460C4656
:104D5000FB61044B1B68FA69D31A18462437BD4619
:104D600090BD00BF9002002080B500AF4FF480716D
:104D70000848FEF79FFF074B1B68DB68DAB2054B5C
:104D80001B6862F4C072DA60034B4FF480225A61F0
:104D900000BF80BD440200200004014080B582B005
:104DA00000AF144B7B6000210420FFF749FE124B3B
:104DB0004FF480225A617B681B689B6803F4805320
:104DC000002B12D07B681B68DB6803F48073002B18
:104DD0000BD07B681B68DB68DAB27B681B6862F407
:104DE000C072DA60786800F007FB00BF0837BD4684
:104DF00080BD00BF440200200004014098B500AF10
:104E00000649074800F014F903460C461A46054BBC
:104E10001A60044B1B68184698BD00BF940200201E
:104E2000A80200209002002080B400AF034B1B6852
:104E30001846BD465DF8047B704700BF9002002015
:104E4000B0B58CB000AF78600023FB850023BB8534
:104E500000237B8500233B850023FB846E4B07F1F9
:104E600010041D1D0FCD0FC42B6823606A4B9B6976
:104E7000FB60FFF779FF7B699BB2C3F57F73033358
:104E8000FB857B689BB2C3F309039AB2FB8D134485
:104E9000FB857B689B0A7B60BB7BFB8408E07B68AF
:104EA000A3F5A833A3F5C0737B60FB8C0133FB84AF
:104EB0007B685A4A9342F2D83B7C3B8506E07B688C
:104EC000A3F561637B603B8D01333B857B68B3F564
:104ED000616FF4D27B7C7B8505E07B683C3B7B602B
:104EE0007B8D01337B857B683B2BF6D8BB7C9AB2EC
:104EF0007B689BB21344BB8506E0FB8DA3F5806302
:104F0000FB85BB8D0133BB85FB8DB3F5806FF4D280
:104F100005E0BB8D3C3BBB857B8D01337B85BB8D29
:104F20003B2BF6D805E07B8D3C3B7B853B8D0133ED
:104F30003B857B8D3B2BF6D805E03B8D183B3B85B5
:104F4000FB8C0133FB843B8D172BF6D8FB7B03F0E6
:104F50000303DBB2002B13D17B7B013B304AD35CD4
:104F60009BB2FA8C9A421ED9FB8C7A7B013A2C496F
:104F70008A5C93FBF2F102FB01F29B1AFB8412E0C4
:104F80007B7B013B274AD35C9BB2FA8C9A420AD9BD
:104F9000FB8C7A7B013A23498A5C93FBF2F102FB9A
:104FA00001F29B1AFB84FB8DC3F57F7303331A4612
:104FB0001D4B5A601C4B4FF020629A61BB8DDAB2D8
:104FC000194B9A707B8DDAB2174B5A703B8DDAB25F
:104FD000154B1A70FB8CDAB2134B83F82020FA7C45
:104FE000114BDA70104B0022DA610F4B00225A612C
:104FF0000D4B4FF480725A620B4B0022DA600A4B61
:1050000000221A61002208490848FEF7FBFC00BF95
:105010003037BD46B0BD00BF900200207F51010077
:1050200004840008F883000868020020440200207D
:10503000B0B588B000AF786039604FF000024FF033
:105040000003C7E90623002239684148FEF730FC17
:105050003B685B687B61002279683D48FEF784FC11
:10506000002239683A48FEF723FC3B685B687A699E
:105070009A42EDD17B68DB781A4640F2B55303FBC8
:1050800002F303339B083B617B68DB7803F0030387
:10509000DBB2002B01D12F4B00E02F4BFB607B6874
:1050A0005B785A1E13461B019B1A9B001344013365
:1050B000DA0F13445B1019467B685B78013B5B0099
:1050C000FA6822FA03F303F00303CB1A3A69134494
:1050D0003B617B689B781A463B691344013B3B610B
:1050E0003B691E4A02FB03F33B613B689B78184611
:1050F0003B681B781A464FF4616303FB02F23B687E
:105100005B7819460B461B015B1A9B001344034452
:105110003A6913443B613B691A464FF00003950D11
:1051200094023B685B68C3F57F7303331A464FF004
:105130000003A01845EB030103460C46C7E90634FB
:10514000D7E90634184621462037BD46B0BD00BF1A
:105150004402002050554400A0AA9900805101004B
:105160000FB480B582B000AF07F114037B607A689A
:1051700039690B4801F082F803469AB2094B1A804C
:10518000084B1A884FF4967305490748FEF760FEEE
:1051900000BF0837BD46BDE8804004B0704700BF7F
:1051A0003803002036030020F40500200000000032
:1051B00090B583B000AFFBF749FD00F07BF84FF4EA
:1051C0007A70FBF775FD3448FFF7CAFF00224FF4F1
:1051D00080714FF09040FCF76DFC01224FF480711C
:1051E0004FF09040FCF766FC002202212B48FCF7B0
:1051F00061FCBE212A48FFF797F8FFF7BBF84FF490
:1052000080714FF09040FCF76DFC80214FF0904092
:10521000FCF768FC0023BB800023FB713B1D184694
:10522000FFF786FB0346FB71FB79002B28D1BB8877
:105230001A461C491C4800F0EBFF1B491B48FFF7AE
:105240008FFFBB881846FBF705F903460C46184646
:105250002146FBF73BFC03461846FBF71DF90CA360
:10526000D3E90023FBF770F903460C461A462346A0
:105270000F490D4800F0CCFF0B490C48FFF770FFB9
:1052800044F62060FBF714FDB9E700BFAFF30080E0
:105290006666666666665A3F208400080008004815
:1052A0006C05002028840008C00500203484000814
:1052B0003884000880B5B8B000AF07F19C034422E1
:1052C0000021184600F027FB07F1880300221A602E
:1052D0005A609A60DA601A613B46882200211846BB
:1052E00000F019FBFDF772F83D4BD3F890303C4AC3
:1052F00023F01803C2F890301E23C7F89C30012316
:10530000C7F8A4304FF48073C7F8A8301023C7F84B
:10531000AC300123C7F8B0300123C7F8B430002304
:10532000C7F8B8306023C7F8BC300023C7F8C430D2
:1053300007F19C031846FDF7BDF80346002B01D08A
:1053400000F052F80F23C7F888300023C7F88C30DC
:105350000023C7F890300023C7F894300023C7F823
:10536000983007F1880300211846FDF707FC034633
:10537000002B01D000F038F81A4B3B6000233B644F
:1053800000237B654FF08053BB674FF40073C7F871
:10539000843002237B600123BB600A23FB60072368
:1053A0003B6102237B610223BB614FF08073FB6191
:1053B0003B461846FDF7BCFD0346002B01D000F02C
:1053C00013F84FF40070FDF71FF80346002B01D0CF
:1053D00000F00AF8FEF792F800BFE037BD4680BD46
:1053E000001002408440020080B500AF0148FFF782
:1053F000B7FEFEE7B884000880B582B000AF7860E1
:10540000FFF778FB00BF0837BD4680BD80B582B08E
:1054100000AF124B1B6E114A43F0010313660F4B92
:105420001B6E03F001037B607B680C4B9B6D0B4A8A
:1054300043F080539365094B9B6D03F080533B60B1
:105440003B68064B9B68054A23F40043936000F0D9
:105450001FF800BF0837BD4680BD00BF00100240E6
:1054600080B483B000AF7860002318460C37BD4687
:105470005DF8047B704780B582B000AF0346FB80C7
:10548000FB881846FFF7D0FB00BF0837BD4680BD3C
:1054900080B590B000AF07F12C0300221A605A606B
:1054A0009A60DA601A61704BDB6C6F4A43F001035B
:1054B000D3646D4BDB6C03F00103BB62BB6A6A4BC8
:1054C000DB6C694A43F00203D364674BDB6C03F087
:1054D00002037B627B6A644BDB6C634A43F0040328
:1054E000D364614BDB6C03F004033B623B6A5E4BAD
:1054F000DB6C5D4A43F00803D3645B4BDB6C03F069
:105500000803FB61FB69584BDB6C574A43F01003FF
:10551000D364554BDB6C03F01003BB61BB69524B8A
:10552000DB6C514A43F02003D3644F4BDB6C03F038
:1055300020037B617B694C4BDB6C4B4A43F040039F
:10554000D364494BDB6C03F040033B613B69464B42
:10555000DB6C454A43F08003D364434BDB6C03F0C0
:105560008003FB60FB6803233B6300237B6349F6F6
:10557000FF73FB6207F12C0319464FF09040FCF7D4
:10558000F1F84FF6FF73FB6207F12C031946374819
:10559000FCF7E8F807F12C0319463548FCF7E2F868
:1055A00007F12C0319463348FCF7DCF807F12C030C
:1055B00019463148FCF7D6F807F12C0319462F4855
:1055C000FCF7D0F807F12C0319462D48FCF7CAF870
:1055D00007F12C0319462B48FCF7C4F8224BDB6C6F
:1055E000214A23F00103D3641F4BDB6C1E4A23F0D6
:1055F0000203D3641C4BDB6C1B4A23F00403D3640B
:10560000194BDB6C184A23F00803D364164BDB6C90
:10561000154A43F01003D364134BDB6C03F0100303
:10562000BB60BB68104BDB6C0F4A43F02003D364B4
:105630000D4BDB6C03F020037B607B680A4BDB6C5B
:10564000094A43F04003D364074BDB6C03F040038B
:105650003B603B68044BDB6C034A23F08003D3645C
:1056600000BF4037BD4680BD001002400004004826
:1056700000080048000C00480010004800140048D2
:1056800000180048001C004880B400AF00BFBD46B1
:105690005DF8047B704780B400AFFEE780B400AFD4
:1056A000FEE780B400AFFEE780B400AFFEE780B451
:1056B00000AF00BFBD465DF8047B704780B400AF0B
:1056C00000BFBD465DF8047B704780B400AF00BFEB
:1056D000BD465DF8047B704780B500AFFBF7CEFA9E
:1056E00000BF80BD80B500AF00F0B2F800BF80BD44
:1056F00080B500AF00F0A0F800BF80BD80B500AF5E
:10570000FFF74CFB00BF80BD80B500AF0120FCF768
:10571000FBF900BF80BD80B500AF0220FCF7F4F9B3
:1057200000BF80BD80B500AF0420FCF7EDF900BFDD
:1057300080BD80B500AF0820FCF7E6F900BF80BD52
:1057400080B500AF1020FCF7DFF900BF80BD80B549
:1057500000AF2020FCF7D8F94020FCF7D5F98020D5
:10576000FCF7D2F94FF48070FCF7CEF94FF40070DB
:10577000FCF7CAF900BF80BD80B500AF4FF4806070
:10578000FCF7C2F94FF40060FCF7BEF94FF480500B
:10579000FCF7BAF94FF40050FCF7B6F94FF480402B
:1057A000FCF7B2F94FF40040FCF7AEF900BF80BD42
:1057B00080B400AF174BD3F88830164A43F4700317
:1057C000C2F88830144B1B68134A43F0010313607E
:1057D000114B00229A60104B1B680F4A23F0A8530C
:1057E00023F4102313600C4B4FF48052DA600A4B01
:1057F0001B68094A23F480231360074B00229A6137
:10580000044B4FF000629A6000BFBD465DF8047B18
:10581000704700BF00ED00E00010024080B582B08C
:1058200000AF7860034B1B68984700BF0837BD4640
:1058300080BD00BF4004002080B500AF034B9B6ECD
:105840001846FBF7DFFE00BF80BD00BFC803002085
:1058500080B500AF0248FEF789FB00BF80BD00BFE6
:10586000C8030020DFF834D0002103E00C4B5B5864
:10587000435004310B480C4B42189A42F6D30B4A62
:1058800002E0002342F8043B094B9A42F9D3FFF7A8
:105890008FFF00F011F8FFF78BFCFEE7008001207E
:1058A000E087000800000020D8010020D801002077
:1058B00070060020FEE7000070B50D4E0D4CA41BD5
:1058C000A4100025A54209D10B4E0C4C02F060FD3E
:1058D000A41BA4100025A54205D170BD56F82530A3
:1058E00098470135EEE756F8253098470135F2E73D
:1058F000D0870008D0870008D0870008D487000828
:1059000010B5431E0A44914200D110BD11F8014B5D
:1059100003F8014FF7E702440346934200D1704772
:1059200003F8011BF9E72DE9FF4755EC104B0D9FDC
:10593000DDF830A0002D0E4691461946B8BF22462C
:105940002B4627F02007BBBF05F100431D4600236F
:105950002D23B8BF1446462F0B7004D0452F00D11D
:105960000136022100E0032103AB019302AB009357
:105970003246534645EC104B00F016FD472F80464B
:1059800002D119F0010F26D0462F08EB060911D1DC
:1059900098F80030302B0AD10022002320462946F7
:1059A000FBF73AF818B9C6F10106CAF80060DAF850
:1059B000003099440022002320462946FBF72CF8AA
:1059C00038B93022039B4B4505D2591C03911A70FC
:1059D000F8E7CDF80C90039B0E9AA3EB0803404622
:1059E000136004B0BDE8F087F7B500290446BABFDC
:1059F00049422D232B23092904F8022B437020DD73
:105A00000DF107031F460A2691FBF6F506FB15115B
:105A10003031092D03F8011C03F1FF32294609DC5E
:105A20003031023B02F8011CBB42224604D3101A5B
:105A300003B0F0BD1346E7E713F8012B04F8012B80
:105A4000F2E7302319448370021DC170EFE70000B4
:105A50002DE9F04F8DB00C46DDF8588016461F46F4
:105A6000054601F023FB036804931846FBF77EF814
:105A700000230A93D8F800300590073323F007037A
:105A800003F1080294F818A0D4F800B0C8F8002078
:105A9000D3E90023C4E91223D4E9128929F0004391
:105AA0000793CDF818804FF0FF32A74BDDE90601D0
:105AB000FBF7B6F870BB4FF0FF32A34BDDE90601F0
:105AC000FAF7BEFF30BB0022002340464946FAF7F2
:105AD000ADFF10B12D2384F843309C4A9C4BBAF1A2
